:02000002B0004C
:1040000000400B00E0520B00000006000C0005020F
:0840100004016810000000002B
:04401800E84F0B0062
:10401C0009480A49884208B505D0094A824202D0AB
:10402C00121A00F029FF0748074A0021121A00F063
:10403C0031FF014808BD00BF48E6032048520B0081
:10404C00B8E60320B8E60320EDE7032070B5074E71
:10405C00074C00F0EFFDA41BA4080025AC4200D1D6
:10406C0070BD56F8043B98470135F7E7FC510B003F
:10407C0020520B0000F014B808B500F029F8BDE888
:10408C00084000F08FBD00F0E1B900F0E7B900780E
:10409C00B0FA80F0400970470123037070470000AC
:1040AC0008B500F0F9FC4FF4E13100F0E9FC00F048
:1040BC00F3FC054900F0D8FB044B01211888BDE83E
:1040CC00084000F027BE00BFFC4F0B0048E6032061
:1040DC0010B50C4C0121208800F02DFE4FF47A70A5
:1040EC0000F0D4F90021208800F025FE4FF47A70FE
:1040FC0000F0CCF900F0D0FCBDE81040024900F013
:10410C00C6BB00BF48E603200C500B000021012069
:10411C0000F018B908B5024B1B685B6C019308BD25
:10412C004802030008B5024B1B685B68019308BD8D
:10413C001802030008B5024B1B685B69019308BDAC
:10414C001802030008B5024B1B689B68019308BD5D
:10415C002C02030008B5024B1B68DB68019308BDF9
:10416C002C02030008B5024B1B681B69019308BDA8
:10417C002C02030008B5024B1B681B6A019308BD97
:10418C002802030008B5024B1B685B6A019308BD4B
:10419C002802030008B5024B1B689B6A019308BDFB
:1041AC002802030008B5024B1B68DB6A019308BDAB
:1041BC002802030008B5024B1B681B6B019308BD5A
:1041CC002802030008B5024B1B685B6B019308BD0A
:1041DC002802030008B5024B1B681B6C019308BD39
:1041EC002802030008B5024B1B685B69019308BDEC
:1041FC006402030008B5024B1B689B68019308BD61
:10420C006802030008B5024B1B68DB68019308BD0C
:10421C006802030008B5024B1B68DB69019308BDFB
:10422C003002030008B5024B1B681B6A019308BDE2
:10423C003002030008B5024B1B68DB68019308BD14
:10424C003C02030008B5024B1B681B69019308BDB7
:10425C003C02030008B5024B1B685B69019308BD67
:10426C003C02030008B5024B1B689B69019308BD17
:10427C003C02030008B5024B1B68DB69019308BDC7
:10428C003C02030008B5024B1B681B6A019308BD76
:10429C003C02030008B5024B1B689B6A019308BDE6
:1042AC003C02030008B5024B1B681B6C019308BD54
:1042BC003C02030008B5024B1B681B68019308BD48
:1042CC004C02030008B5024B1B685B68019308BDE8
:1042DC004C02030008B5024B1B681B69019308BD17
:1042EC004C02030008B5024B1B685B69019308BDC7
:1042FC004C02030008B5024B1B689B69019308BD77
:10430C004C02030008B5024B1B68DB69019308BD26
:10431C004C02030008B5024B1B681B6A019308BDD5
:10432C004C02030008B5024B1B685B68019308BD87
:10433C002002030008B5024B1B685B69019308BDA2
:10434C002002030008B5024B1B68DB6A019308BD11
:10435C002002030008B5034B1B68D3F88830019387
:10436C0008BD00002002030008B5034B1B68D3F8FE
:10437C009430019308BD00002002030008B5024BE5
:10438C001B68DB6B019308BD4402030008B5024BAC
:10439C001B685B68019308BD4002030008B5024B23
:1043AC001B689B68019308BD4002030008B5024BD3
:1043BC001B68DB68019308BD4002030008B5024B83
:1043CC001B681B69019308BD4002030008B5024B32
:1043DC001B685B69019308BD4002030008B5024BE2
:1043EC001B689B69019308BD4002030008B5024B92
:1043FC001B68DB69019308BD4002030008B5024B42
:10440C001B681B6A019308BD4002030008B5024BF0
:10441C001B681B6B019308BD4002030008B5024BDF
:10442C001B685B6B019308BD4002030008B5024B8F
:10443C001B681B6C019308BD4002030008B5024BBE
:10444C001B685B6C019308BD4002030008B5024B6E
:10445C001B681B68019308BD1C02030008B5024BC6
:10446C001B685B68019308BD1C02030008B5024B76
:10447C001B681B6C019308BD1C02030008B5024BA2
:10448C001B685B6C019308BD1C0203000021FFF745
:10449C0051BF0000024800230360FFF73BBE00BF82
:1044AC00B8E60320002240681146FFF7A7BF0022A0
:1044BC0040681146FFF7B2BF40680022FFF7A6BF65
:1044CC004068002281F00101FFF790BF0023406893
:1044DC001A461946FFF782BF002340681A46194650
:1044EC00FFF774BF002240681146FFF767BF002238
:1044FC0040681146FFF752BF406800220221FFF7C7
:10450C0055BF002340681A46FFF740BF024B0322F9
:10451C005A60024A1A607047BCE6032020500B0018
:10452C007047F8B5064615460C468F18BC4206D0A7
:10453C00336814F8011B9B6830469847F6E7284609
:10454C00F8BD007C0022FFF715BE007C0021FFF7B0
:10455C0019BE007C0021FFF71DBE007C0021FFF777
:10456C0021BE007C0021FFF725BE10B514210446A6
:10457C00FFF78BFD204610BD38B5044615464FF4A9
:10458C007A730022C4E90123094B21740846236085
:10459C002946FFF71FFEBF3008D16B69DB0705D535
:1045AC006868FFF75BFFE868FFF758FF204638BDE7
:1045BC005C500B00704710B518210446FFF765FDE1
:1045CC00204610BDF0B5037D062B8DB00E4600F1D4
:1045DC0004074FF0000412D000F1080515F8011D76
:1045EC000A22304600F05DF9AF42044419D0002C89
:1045FC00F4D02E21304600F03BF90444EEE72F2393
:10460C006A4639460A208DF80040FFF7EBFD6846F4
:10461C0000F076FC33680246DB6869463046984702
:10462C00044620460DB0F0BD10B5054B04461122D2
:10463C0040F8043B002100F02DFC204610BD00BFCB
:10464C0084500B000346074A10B543F8042B01F1C4
:10465C00100251F8044B43F8044B9142F9D10A78FB
:10466C001A7010BD84500B0010B59DF8084044EA38
:10467C00032343EA024242EA0161042341600375C9
:10468C0010BD000007B5064B0360CB7800938B7808
:10469C004A780978FFF7E8FF03B05DF804FB00BF28
:1046AC0084500B00014B024A1A607047C4E6032089
:1046BC0090500B00002340681A46FFF767BE406815
:1046CC0000220221FFF772BE002240681146FFF75C
:1046DC0065BE002240681146FFF770BE002340689B
:1046EC001A461946FFF772BE002340681A4619464F
:1046FC00FFF774BE40680021FFF798BE40680021A8
:10470C00FFF79CBE4068002281F00101FFF76EBEEE
:10471C0040680022FFF77ABE002240681146FFF77E
:10472C007DBE002240681146FFF768BE2DE9F043BC
:10473C0095B014460D460746FFF776FF00211C2264
:10474C000DA8009100F0A6FB40230C9320466B466D
:10475C000CAA0021FFF756FD044600284BD1024657
:10476C0001216868FFF72AFE02218046224668680C
:10477C00FFF724FE009E81462146002E3BD00029E7
:10478C0039D17368022B03D00A2B11D0F669F4E7E8
:10479C00B8F1000FFAD0716906A8043107ADFFF724
:1047AC0071FF0FCD3C1D0FC42B6823704146EDE704
:1047BC00B9F1000FEAD07469102201A800F06AFB6D
:1047CC0006238DF8143001AD04F108031834186871
:1047DC0059682A4603C20833A3421546F7D101A9EA
:1047EC0006A807ADFFF72EFF0FCD3C1D0FC42B689D
:1047FC0023704946CAE70098FFF7FCFC384615B011
:10480C00BDE8F083024B034A1A6000225A607047DD
:10481C00C8E603209C500B00F8B506460D468F18D1
:10482C000024BD420CD0336815F8011B9B68304640
:10483C009847031E01DB1C44F3E7002C08BF1C4601
:10484C002046F8BD13B50446084659B1019100F055
:10485C0057FB23680199DB680246204602B0BDE88D
:10486C001040184702B010BD08B5FFF7EBFF08BDAC
:10487C0003689B68184738B50D210546FFF7F8FF0C
:10488C000A2104462846FFF7F3FF204438BD38B50B
:10489C000546FFF7D7FF04462846FFF7ECFF2044F8
:1048AC0038BD30B58BB00023012A8DF8243098BF69
:1048BC000A2209AC0D46B1FBF2F101FB125303F0D5
:1048CC00FF03092B94BF30333733DBB2AA4204F811
:1048DC00013DEFD92146FFF7B5FF0BB030BD00000D
:1048EC00014B00229A607047D0E6032010B50446B5
:1048FC0008462170FFF78EFC00236360204610BD34
:10490C00054B02221A60054B054A9A600020C3E948
:10491C000000FFF707BD00BFECE60320E0E6032034
:10492C000000FFFF024B1A68024B1A60704700BF71
:10493C004CE60320F0E6032070474174704708B53D
:10494C00007CFFF7A7FC20EAE07008BD08B5007CEE
:10495C00FFF778FC20EAE07008BD08B5007CFFF793
:10496C0081FC40EAE07008BD08B5007CFFF772FCE2
:10497C0040EAE07008BD007CFFF77CBC37B5457C95
:10498C0004462DB1207C03B0BDE83040FFF752BC8B
:10499C00007C0191FFF77EFC00280199F2DC28468F
:1049AC0003B030BD10B514210446FFF76EFB204652
:1049BC0010BD000010B54FF47A730446084611463A
:1049CC000022C4E90123044B236001232074637487
:1049DC00FFF768FC204610BDF4500B004174704783
:1049EC007047704708B50021007CFFF783FC40EA54
:1049FC00E07008BD08B50121007CFFF77BFC40EAA4
:104A0C00E07008BD08B5007CFFF76CFC20EAE07094
:104A1C0008BD08B5007CFFF75DFC20EAE07008BD1E
:104A2C0013B50446007C0191FFF75CFC002801994A
:104A3C0001DC607C20B1207CFFF764FC20EAE07094
:104A4C0002B010BD007CFFF765BC10B51421044604
:104A5C00FFF71BFB204610BD10B54FF47A730446CC
:104A6C0008460021C4E90113044B23600123207480
:104A7C0063741146FFF71EFC204610BD24510B0039
:104A8C00007C0022FFF71EBC10B514220446002146
:104A9C0000F000FA204610BD10B50F4C88B003A8EA
:104AAC00FFF7F2FF2178BFF35B8F11F001010FD1FB
:104ABC0020460191FFF7EBFA019948B103AA074888
:104ACC00FFF7CAFF2046FFF7E7FA054800F0CEF9DA
:104ADC00024808B010BD00BFF4E60320F8E603203E
:104AEC00ED490B00002240681146FFF767BC00221D
:104AFC0040681146FFF782BC002240681146FFF760
:104B0C008DBC40680022FFF781BC4068002281F018
:104B1C000101FFF76BBC002340681A461946FFF7EA
:104B2C005DBC002340681A461946FFF74FBC0022B3
:104B3C0040681146FFF732BC406800220221FFF7A3
:104B4C0035BC002340681A46FFF720BC024B0422F8
:104B5C005A60024A1A6070470CE7032054510B004C
:104B6C00014B1860704700BF50E6032008B50B4B93
:104B7C0043B1FFF791FF03681B699847002801DDDB
:104B8C00AFF30080064B43B100F04AF903681B6990
:104B9C009847002801DDAFF3008008BD000000003D
:104BAC000000000008B5FFF7E1FFFFF7C3FA014B67
:104BBC00186008BD28E703200548064A064908B5D1
:104BCC00121A00F059F9054B054A1A6008BD00BFCE
:104BDC0000F4032004F4032044520B0000F40320DF
:104BEC001E1C279A07B5002300931A466FF0770115
:104BFC00FFF7BAFB03B05DF804FB000007B5438870
:104C0C000A2B08D0502B0BD1094B1B684BB103B0AE
:104C1C005DF804EB1847FFF7E5FF03B05DF804FB04
:104C2C00002300931A466FF07701FFF79DFBF4E722
:104C3C0018E7032010B512480021FFF71FFC114B99
:104C4C001A68114B9A42114B0CBF012200221A70A8
:104C5C0001D0FFF7B1FFFFF765FA044600F022F927
:104C6C000B4B13B12046AFF3008000210848FFF72F
:104C7C0085FBBDE8104007480021FFF76BBB00BF68
:104C8C006D4B0B0000F403201E1C279A14E7032025
:104C9C0000000000094C0B00232813B502D900209A
:104CAC0002B010BDA0F10B03022B1AD8174C2178BF
:104CBC00BFF35B8F11F001010BD120460191FFF77F
:104CCC00E6F9019928B11248FFF710FE2046FFF7CC
:104CDC00E3F90F4B1878FFF7A5FA0028DFD1012074
:104CEC00DEE7012809D800F05BF80021007CFFF713
:104CFC0069FA80F00100C0B2D2E709380128EED879
:104D0C0000F08EF8007CFFF7BDFAF2E71CE70320F9
:104D1C0020E70320232838B504460D460AD8FF297E
:104D2C0008D0FFF7B9FF28B129462046BDE8384026
:104D3C00FFF708BA38BD38B504460D46FFF70AFA36
:104D4C00FF2810D0062804D84D2323FA00F0C307FF
:104D5C0009D42046FFF7A0FF28B129462046BDE81C
:104D6C003840FFF7FFB938BD7047000038B50A4B23
:104D7C0003600123044643610849202000F074F8C5
:104D8C00202560600549A560284600F06DF8C4E94F
:104D9C000305204638BD00BF1800010088510B00E8
:104DAC0030B50E4D2978BFF35B8F11F0010487B03D
:104DBC0011D12846FFF76BF968B16846FFF7D6FFAB
:104DCC006A4621460648FFF7D7FB2846FFF764F9E9
:104DDC00044800F04BF8024807B030BD2CE7032024
:104DEC0030E70320754D0B007047000038B50446C2
:104DFC0014252A46002100F04DF82580402507494E
:104E0C0025812846258200F02FF804496060284649
:104E1C0000F02AF8E060204638BD00BF88510B0036
:104E2C0030B50E4D2978BFF35B8F11F0010487B0BC
:104E3C0011D12846FFF72BF968B101A8FFF7D6FF6F
:104E4C0001AA21460648FFF7B5FD2846FFF724F9CD
:104E5C00044800F00BF8024807B030BD44E70320CB
:104E6C0048E70320F54D0B00FFF70DB90023014671
:104E7C001A46184600F04CB80A44914200F1FF3330
:104E8C0000D1704710B511F8014B03F8014F914256
:104E9C00F9D110BD02440346934200D1704703F888
:104EAC00011BF9E738B5104B1D68AB6B0446B3B961
:104EBC001820FFF7CBFA0246A86320B90B4B0C481D
:104ECC004221FFF7D3FA0B490B4BC0E900130B4BF4
:104EDC0083600B23838100210120C2E90401AB6BA9
:104EEC0000221C615A6138BD50E6032089510B0029
:104EFC00A0510B000E33CDAB34126DE6ECDE050089
:104F0C00034613F8012B002AFBD1181A01387047FD
:104F1C002DE9F843DFF8B8800646D8F800001F46A4
:104F2C000D46914600F056F8254B1C6834B9254CBB
:104F3C001C60254B13B11B68C4F8883063681F2BA9
:104F4C0007DDD8F8000000F047F84FF0FF30BDE85F
:104F5C00F8834EB3D4F8880088B91C4B23B9D8F821
:104F6C00000000F038F8F0E74FF48470FFF76EFAA9
:104F7C000028F4D00023C0E94033C4F888006368EB
:104F8C0040F8239001229A4000EB8301D0F80031C5
:104F9C001343C0F80031022EC1F8807002BFD0F864
:104FAC0004311343C0F804316368D8F800005A1C6C
:104FBC000233626044F8235000F00EF80020C6E77C
:104FCC00E8E703205CE703200000000059440B00D5
:104FDC00B4E6032070477047704700001D400B007B
:104FEC0059400B0081400B0085400B000000000075
:104FFC00496E697469616C697A696E672E2E2E0030
:10500C00696E20746865206C6F6F70000000000082
:10501C00000000000F450B0005450B00FB440B0086
:10502C00F1440B00E5440B00D9440B0001470B0085
:10503C0009470B00CD440B00C5440B00BB440B00CF
:10504C00B1440B0039470B000000000000000000C9
:10505C002D450B0077450B004F450B002F450B00E2
:10506C0057450B005F450B0067450B006F450B0068
:10507C000000000000000000D1450B00C1450B00F2
:10508C00C3450B00617070000000000000000000C0
:10509C00C1460B00CB460B00D5460B00DF460B0080
:1050AC00E9460B00F5460B0001470B0009470B00C6
:1050BC0011470B001D470B0025470B002F470B001A
:1050CC0039470B0025592D256D2D25645425483A5B
:1050DC00254D3A2553257A0061736374696D65001B
:1050EC00000000000000000045490B00B1490B0016
:1050FC0089490B0025480B0059490B0075490B00D9
:10510C0067490B0083490B0047490B004B490B00C7
:10511C000000000000000000EF490B00574A0B0094
:10512C002D4A0B0025480B001F4A0B00F1490B00C0
:10513C00014A0B00514A0B00114A0B00E9490B00C4
:10514C0000000000000000004F4B0B00454B0B0013
:10515C003B4B0B00F14A0B002F4B0B00234B0B006E
:10516C0001470B0009470B00174B0B000F4B0B00B3
:10517C00054B0B00FB4A0B0039470B000052454511
:10518C004E54206D616C6C6F632073756363656541
:10519C00646564002F746D702F6A656E6B696E7335
:1051AC002D4743432D31302D706970656C696E65E8
:1051BC002D34385F32303230313132345F31363069
:1051CC00363138303633392F7372632F6E65776C06
:1051DC0069622F6E65776C69622F6C6962632F73DD
:1051EC0074646C69622F72616E642E63000000003F
:1051FC0019410B00A1440B0019450B00B1460B00E3
:10520C0011480B00ED480B000D490B0031490B0008
:04521C00594B0B00DF
:10522000040000001400000003000000474E550079
:10523000A99DF941ADF143B79BACE7BEF541D4B9A7
:04524000F5B465ADAF
:045244000000000066
:1052480004000000E4500B0054E6032000000000B6
:105258000000000000000000000000000000000046
:105268000000000000000000000000000000000036
:105278000000000000000000000000000000000026
:105288000000000000000000000000000000000016
:105298000000000000000000000000000000000006
:1052A800000000000000000000000000ECE7032000
:1052B800FFFFFFFF00000102030405060708090AB3
:1052C8000B0C0D0E0F101112131415161718191AAE
:0852D8001B1C1D1E1F202800F5
:0452E00078563412B6
:04000003B000401CED
:00000001FF
