:02000002B0004C
:1040000000400B0050520B00000006000C0005029F
:0840100004016810000000002B
:044018006C4F0B00DE
:10401C0009480A49884208B505D0094A824202D0AB
:10402C00121A00F0EBFE0748074A0021121A00F0A2
:10403C00F3FE014808BD00BF48E60320B8510B0051
:10404C00B8E60320B8E60320EDE7032070B5074E71
:10405C00074C00F0B1FDA41BA4080025AC4200D114
:10406C0070BD56F8043B98470135F7E764510B00D7
:10407C0088510B0000F014B808B500F019F8BDE831
:10408C00084000F051BD00F0C1B900F0C7B900788C
:10409C00B0FA80F0400970470123037070470000AC
:1040AC00024B0121188800F0F7BD00BF48E6032041
:1040BC0010B5094C0121208800F0FFFD4FF47A70F7
:1040CC0000F0C4F92088002100F0F7FDBDE8104095
:1040DC004FF47A7000F0BAB948E6032000210120B1
:1040EC0000F010B908B5024B1B685B6C019308BD5E
:1040FC004802030008B5024B1B685B68019308BDBE
:10410C001802030008B5024B1B685B69019308BDDC
:10411C001802030008B5024B1B689B68019308BD8D
:10412C002C02030008B5024B1B68DB68019308BD29
:10413C002C02030008B5024B1B681B69019308BDD8
:10414C002C02030008B5024B1B681B6A019308BDC7
:10415C002802030008B5024B1B685B6A019308BD7B
:10416C002802030008B5024B1B689B6A019308BD2B
:10417C002802030008B5024B1B68DB6A019308BDDB
:10418C002802030008B5024B1B681B6B019308BD8A
:10419C002802030008B5024B1B685B6B019308BD3A
:1041AC002802030008B5024B1B681B6C019308BD69
:1041BC002802030008B5024B1B685B69019308BD1C
:1041CC006402030008B5024B1B689B68019308BD91
:1041DC006802030008B5024B1B68DB68019308BD3D
:1041EC006802030008B5024B1B68DB69019308BD2C
:1041FC003002030008B5024B1B681B6A019308BD13
:10420C003002030008B5024B1B68DB68019308BD44
:10421C003C02030008B5024B1B681B69019308BDE7
:10422C003C02030008B5024B1B685B69019308BD97
:10423C003C02030008B5024B1B689B69019308BD47
:10424C003C02030008B5024B1B68DB69019308BDF7
:10425C003C02030008B5024B1B681B6A019308BDA6
:10426C003C02030008B5024B1B689B6A019308BD16
:10427C003C02030008B5024B1B681B6C019308BD84
:10428C003C02030008B5024B1B681B68019308BD78
:10429C004C02030008B5024B1B681B69019308BD57
:1042AC004C02030008B5024B1B685B69019308BD07
:1042BC004C02030008B5024B1B689B69019308BDB7
:1042CC004C02030008B5024B1B68DB69019308BD67
:1042DC004C02030008B5024B1B681B6A019308BD16
:1042EC004C02030008B5024B1B685B68019308BDC8
:1042FC002002030008B5024B1B685B69019308BDE3
:10430C002002030008B5024B1B68DB6A019308BD51
:10431C002002030008B5034B1B68D3F888300193C7
:10432C0008BD00002002030008B5034B1B68D3F83E
:10433C009430019308BD00002002030008B5024B25
:10434C001B68DB6B019308BD4402030008B5024BEC
:10435C001B685B68019308BD4002030008B5024B63
:10436C001B689B68019308BD4002030008B5024B13
:10437C001B68DB68019308BD4002030008B5024BC3
:10438C001B681B69019308BD4002030008B5024B72
:10439C001B685B69019308BD4002030008B5024B22
:1043AC001B689B69019308BD4002030008B5024BD2
:1043BC001B68DB69019308BD4002030008B5024B82
:1043CC001B681B6A019308BD4002030008B5024B31
:1043DC001B681B6B019308BD4002030008B5024B20
:1043EC001B685B6B019308BD4002030008B5024BD0
:1043FC001B681B6C019308BD4002030008B5024BFF
:10440C001B685B6C019308BD4002030008B5024BAE
:10441C001B681B68019308BD1C02030008B5024B06
:10442C001B685B68019308BD1C02030008B5024BB6
:10443C001B681B6C019308BD1C02030008B5024BE2
:10444C001B685B6C019308BD1C0203000021FFF785
:10445C0051BF0000024800230360FFF743BE00BFBA
:10446C00B8E60320002240681146FFF7A7BF0022E0
:10447C0040681146FFF7B2BF40680022FFF7A6BFA5
:10448C004068002281F00101FFF790BF00234068D3
:10449C001A461946FFF782BF002340681A46194690
:1044AC00FFF774BF002240681146FFF767BF002278
:1044BC0040681146FFF752BF406800220221FFF707
:1044CC0055BF002340681A46FFF740BF024B03223A
:1044DC005A60024A1A607047BCE60320884F0B00F2
:1044EC007047F8B5064615460C468F18BC4206D0E8
:1044FC00336814F8011B9B6830469847F6E728464A
:10450C00F8BD007C0022FFF71DBE007C0021FFF7E8
:10451C0021BE007C0021FFF725BE007C0021FFF7A7
:10452C0029BE007C0021FFF72DBE10B514210446D6
:10453C00FFF7ABFD204610BD38B5044615464FF4C9
:10454C007A730022C4E90123094B217408462360C5
:10455C002946FFF727FEBF3008D16B69DB0705D56D
:10456C006868FFF75BFFE868FFF758FF204638BD27
:10457C00C44F0B00704710B518210446FFF785FD9A
:10458C00204610BDF0B5037D062B8DB00E4600F114
:10459C0004074FF0000412D000F1080515F8011DB6
:1045AC000A22304600F043F9AF42044419D0002CE3
:1045BC00F4D02E21304600F037F90444EEE72F23D7
:1045CC006A4639460A208DF80040FFF7F3FD68462D
:1045DC0000F058FC33680246DB6869463046984761
:1045EC00044620460DB0F0BD10B5054B0446112213
:1045FC0040F8043B002100F00FFC204610BD00BF2A
:10460C00EC4F0B000346074A10B543F8042B01F19D
:10461C00100251F8044B43F8044B9142F9D10A783B
:10462C001A7010BDEC4F0B0010B59DF8084044EA11
:10463C00032343EA024242EA016104234160037509
:10464C0010BD000007B5064B0360CB7800938B7848
:10465C004A780978FFF7E8FF03B05DF804FB00BF68
:10466C00EC4F0B00014B024A1A607047C4E6032062
:10467C00F84F0B00002340681A46FFF767BE4068EE
:10468C0000220221FFF772BE002240681146FFF79C
:10469C0065BE002240681146FFF770BE00234068DB
:1046AC001A461946FFF772BE002340681A4619468F
:1046BC00FFF774BE40680021FFF798BE40680021E8
:1046CC00FFF79CBE4068002281F00101FFF76EBE2F
:1046DC0040680022FFF77ABE002240681146FFF7BF
:1046EC007DBE002240681146FFF768BE2DE9F043FD
:1046FC0095B014460D460746FFF776FF00211C22A5
:10470C000DA8009100F088FB40230C9320466B46CB
:10471C000CAA0021FFF75EFD044600284BD102468F
:10472C0001216868FFF72AFE02218046224668684C
:10473C00FFF724FE009E81462146002E3BD0002927
:10474C0039D17368022B03D00A2B11D0F669F4E728
:10475C00B8F1000FFAD0716906A8043107ADFFF764
:10476C0071FF0FCD3C1D0FC42B6823704146EDE744
:10477C00B9F1000FEAD07469102201A800F04CFBCB
:10478C0006238DF8143001AD04F1080318341868B1
:10479C0059682A4603C20833A3421546F7D101A92A
:1047AC0006A807ADFFF72EFF0FCD3C1D0FC42B68DD
:1047BC0023704946CAE70098FFF704FD384615B048
:1047CC00BDE8F083024B034A1A6000225A6070471E
:1047DC00C8E6032004500B00F8B506460D468F18AA
:1047EC000024BD420CD0336815F8011B9B68304681
:1047FC009847031E01DB1C44F3E7002C08BF1C4642
:10480C002046F8BD13B50446084659B1019100F095
:10481C0039FB23680199DB680246204602B0BDE8EB
:10482C001040184702B010BD03689B68184730B59C
:10483C008BB00023012A8DF8243098BF0A2209ACD2
:10484C000D46B1FBF2F101FB125303F0FF03092BF0
:10485C0094BF30333733DBB2AA4204F8013DEFD9B1
:10486C002146FFF7CFFF0BB030BD0000014B0022FB
:10487C009A607047D0E6032010B5044608462170B4
:10488C00FFF7B0FC00236360204610BD054B0222ED
:10489C001A60054B054A9A600020C3E90000FFF737
:1048AC0021BD00BFECE60320E0E603200000FFFF83
:1048BC00024B1A68024B1A60704700BF4CE603208B
:1048CC00F0E6032070474174704708B5007CFFF791
:1048DC00C9FC20EAE07008BD08B5007CFFF79AFC23
:1048EC0020EAE07008BD08B5007CFFF7A3FC40EAA5
:1048FC00E07008BD08B5007CFFF794FC40EAE0705E
:10490C0008BD007CFFF79EBC37B5457C04462DB135
:10491C00207C03B0BDE83040FFF774BC007C0191F3
:10492C00FFF7A0FC00280199F2DC284603B030BD4B
:10493C0010B514210446FFF7A8FB204610BD00005B
:10494C0010B54FF47A730446084611460022C4E9A8
:10495C000123044B2360012320746374FFF78AFC4A
:10496C00204610BD5C500B00417470477047704777
:10497C0008B50021007CFFF79DFC40EAE07008BD03
:10498C0008B50121007CFFF795FC40EAE07008BDFA
:10499C0008B5007CFFF786FC20EAE07008BD08B57E
:1049AC00007CFFF777FC20EAE07008BD13B50446E5
:1049BC00007C0191FFF776FC0028019901DC607CFA
:1049CC0020B1207CFFF77EFC20EAE07002B010BD25
:1049DC00007CFFF77FBC10B514210446FFF755FB94
:1049EC00204610BD10B54FF47A73044608460021DA
:1049FC00C4E90113044B2360012320746374114632
:104A0C00FFF740FC204610BD8C500B0010B5142253
:104A1C000446002100F000FA204610BD10B50F4CE2
:104A2C0088B003A8FFF7F2FF2178BFF35B8F11F07A
:104A3C0001010FD120460191FFF729FB019948B1E3
:104A4C0003AA0748FFF7CEFF2046FFF725FB0548D2
:104A5C0000F0CEF9024808B010BD00BFF4E6032008
:104A6C00F8E6032079490B00002240681146FFF755
:104A7C0085BC002240681146FFF7A0BC00224068AC
:104A8C001146FFF7ABBC40680022FFF79FBC4068A3
:104A9C00002281F00101FFF789BC002340681A460F
:104AAC001946FFF77BBC002340681A461946FFF7EE
:104ABC006DBC002240681146FFF750BC40680022D4
:104ACC000221FFF753BC002340681A46FFF73EBC97
:104ADC00024B04225A60024A1A6070470CE703200A
:104AEC00BC500B00014B1860704700BF50E6032010
:104AFC0008B50B4B43B1FFF791FF03681B6998474F
:104B0C00002801DDAFF30080064B43B100F04AF9F9
:104B1C0003681B699847002801DDAFF3008008BDCE
:104B2C00000000000000000008B5FFF7E1FFFFF7F0
:104B3C00E9FA014B186008BD28E703200548064A2E
:104B4C00064908B5121A00F059F9054B054A1A60C6
:104B5C0008BD00BF00F4032004F40320B4510B0083
:104B6C0000F403201E1C279A07B5002300931A4655
:104B7C006FF07701FFF7D8FB03B05DF804FB000082
:104B8C0007B543880A2B08D0502B0BD1094B1B6857
:104B9C004BB103B05DF804EB1847FFF7E5FF03B02A
:104BAC005DF804FB002300931A466FF07701FFF7C2
:104BBC00BBFBF4E718E7032010B512480021FFF700
:104BCC003DFC114B1A68114B9A42114B0CBF012240
:104BDC0000221A7001D0FFF7B1FFFFF78BFA0446E1
:104BEC0000F022F90B4B13B12046AFF300800021EB
:104BFC000848FFF7A3FBBDE8104007480021FFF76A
:104C0C0089BB00BFF14A0B0000F403201E1C279A3D
:104C1C0014E70320000000008D4B0B00232813B574
:104C2C0002D9002002B010BDA0F10B03022B1AD840
:104C3C00174C2178BFF35B8F11F001010BD120468B
:104C4C000191FFF724FA019928B11248FFF714FEDD
:104C5C002046FFF721FA0F4B1878FFF7CBFA002804
:104C6C00DFD10120DEE7012809D800F05BF8002134
:104C7C00007CFFF78FFA80F00100C0B2D2E7093850
:104C8C000128EED800F08EF8007CFFF7E3FAF2E78B
:104C9C001CE7032020E70320232838B504460D46E3
:104CAC000AD8FF2908D0FFF7B9FF28B129462046BA
:104CBC00BDE83840FFF72EBA38BD38B504460D466E
:104CCC00FFF730FAFF2810D0062804D84D2323FA1A
:104CDC0000F0C30709D42046FFF7A0FF28B12946EE
:104CEC002046BDE83840FFF725BA38BD70470000B4
:104CFC0038B50A4B03600123044643610849202060
:104D0C0000F074F8202560600549A560284600F085
:104D1C006DF8C4E90305204638BD00BF180001003A
:104D2C00F0500B0030B50E4D2978BFF35B8F11F0AE
:104D3C00010487B011D12846FFF7A9F968B168467C
:104D4C00FFF7D6FF6A4621460648FFF7F5FB2846D3
:104D5C00FFF7A2F9044800F04BF8024807B030BD49
:104D6C002CE7032030E70320F94C0B0070470000C0
:104D7C0038B5044614252A46002100F04DF825804C
:104D8C004025074925812846258200F02FF8044943
:104D9C006060284600F02AF8E060204638BD00BF6D
:104DAC00F0500B0030B50E4D2978BFF35B8F11F02E
:104DBC00010487B011D12846FFF769F968B101A841
:104DCC00FFF7D6FF01AA21460648FFF7B9FD284692
:104DDC00FFF762F9044800F00BF8024807B030BD49
:104DEC0044E7032048E70320794D0B00FFF74BB94C
:104DFC00002301461A46184600F04CB80A4491426A
:104E0C0000F1FF3300D1704710B511F8014B03F8D6
:104E1C00014F9142F9D110BD02440346934200D197
:104E2C00704703F8011BF9E738B5104B1D68AB6BE5
:104E3C000446B3B91820FFF7E9FA0246A86320B973
:104E4C000B4B0C484221FFF7F1FA0B490B4BC0E915
:104E5C0000130B4B83600B23838100210120C2E9DB
:104E6C000401AB6B00221C615A6138BD50E6032073
:104E7C00F1500B0008510B000E33CDAB34126DE624
:104E8C00ECDE0500034613F8012B002AFBD1181A9F
:104E9C00013870472DE9F843DFF8B8800646D8F89A
:104EAC0000001F460D46914600F056F8254B1C6835
:104EBC0034B9254C1C60254B13B11B68C4F88830E1
:104ECC0063681F2B07DDD8F8000000F047F84FF09F
:104EDC00FF30BDE8F8834EB3D4F8880088B91C4B7A
:104EEC0023B9D8F8000000F038F8F0E74FF48470DC
:104EFC00FFF78CFA0028F4D00023C0E94033C4F843
:104F0C008800636840F8239001229A4000EB8301EB
:104F1C00D0F800311343C0F80031022EC1F8807074
:104F2C0002BFD0F804311343C0F804316368D8F8D9
:104F3C0000005A1C0233626044F8235000F00EF853
:104F4C000020C6E7E8E703205CE703200000000030
:104F5C0019440B00B4E603207047704770470000FB
:104F6C001D400B0059400B0081400B0085400B008D
:104F7C00000000000000000000000000CF440B0007
:104F8C00C5440B00BB440B00B1440B00A5440B0003
:104F9C0099440B00C1460B00C9460B008D440B0015
:104FAC0085440B007B440B0071440B00F9460B004D
:104FBC000000000000000000ED440B0037450B0022
:104FCC000F450B00EF440B0017450B001F450B0062
:104FDC0027450B002F450B000000000000000000CF
:104FEC0091450B0081450B0083450B0061707000EF
:104FFC00000000000000000081460B008B460B00F7
:10500C0095460B009F460B00A9460B00B5460B00BE
:10501C00C1460B00C9460B00D1460B00DD460B0008
:10502C00E5460B00EF460B00F9460B0025592D25E4
:10503C006D2D25645425483A254D3A2553257A0083
:10504C0061736374696D650000000000000000006E
:10505C00D1480B003D490B0015490B00E5470B00EF
:10506C00E5480B0001490B00F3480B000F490B00FE
:10507C00D3480B00D7480B000000000000000000D4
:10508C007B490B00E3490B00B9490B00E5470B00CA
:10509C00AB490B007D490B008D490B00DD490B0022
:1050AC009D490B0075490B0000000000000000003A
:1050BC00D34A0B00C94A0B00BF4A0B00754A0B00C0
:1050CC00B34A0B00A74A0B00C1460B00C9460B00A4
:1050DC009B4A0B00934A0B00894A0B007F4A0B003A
:1050EC00F9460B00005245454E54206D616C6C6FB7
:1050FC006320737563636565646564002F746D70FC
:10510C002F6A656E6B696E732D4743432D31302DBD
:10511C00706970656C696E652D34385F3230323071
:10512C00313132345F313630363138303633392F15
:10513C007372632F6E65776C69622F6E65776C691D
:10514C00622F6C6962632F7374646C69622F726175
:10515C006E642E6300000000E9400B0061440B00FC
:10516C00D9440B0071460B00D1470B0079480B005A
:10517C0099480B00BD480B00DD4A0B0000000000F5
:04518C00000000001F
:10519000040000001400000003000000474E55000A
:1051A00028352DF0F4E60282052ED1B798AA37FDF6
:0451B000D2B11D74E7
:0451B40000000000F7
:1051B800070000004C500B0054E6032000000000DC
:1051C80000000000000000000000000000000000D7
:1051D80000000000000000000000000000000000C7
:1051E80000000000000000000000000000000000B7
:1051F80000000000000000000000000000000000A7
:105208000000000000000000000000000000000096
:10521800000000000000000000000000ECE7032090
:10522800FFFFFFFF00000102030405060708090A43
:105238000B0C0D0E0F101112131415161718191A3E
:085248001B1C1D1E1F20280085
:045250007856341246
:04000003B000401CED
:00000001FF
