:02000002B0004C
:1040000000400B00A0520B00000006000C0005024F
:0840100004016810000000002B
:04401800AC4F0B009E
:10401C0009480A49884208B505D0094A824202D0AB
:10402C00121A00F00BFF0748074A0021121A00F081
:10403C0013FF014808BD00BF48E6032008520B00DF
:10404C00B8E60320B8E60320EDE7032070B5074E71
:10405C00074C00F0D1FDA41BA4080025AC4200D1F4
:10406C0070BD56F8043B98470135F7E7B4510B0087
:10407C00D8510B0000F014B808B500F029F8BDE8D1
:10408C00084000F071BD00F0D9B900F0DFB900783C
:10409C00B0FA80F0400970470123037070470000AC
:1040AC0008B500F0DBFC4FF4E13100F0CBFC00F084
:1040BC00D5FC054900F0D0FB044B01211888BDE864
:1040CC00084000F009BE00BFC04F0B0048E60320BB
:1040DC0010B5094C0121208800F00FFE4FF47A70C6
:1040EC0000F0CCF92088002100F007FEBDE810405C
:1040FC004FF47A7000F0C2B948E603200021012089
:10410C0000F018B908B5024B1B685B6C019308BD35
:10411C004802030008B5024B1B685B68019308BD9D
:10412C001802030008B5024B1B685B69019308BDBC
:10413C001802030008B5024B1B689B68019308BD6D
:10414C002C02030008B5024B1B68DB68019308BD09
:10415C002C02030008B5024B1B681B69019308BDB8
:10416C002C02030008B5024B1B681B6A019308BDA7
:10417C002802030008B5024B1B685B6A019308BD5B
:10418C002802030008B5024B1B689B6A019308BD0B
:10419C002802030008B5024B1B68DB6A019308BDBB
:1041AC002802030008B5024B1B681B6B019308BD6A
:1041BC002802030008B5024B1B685B6B019308BD1A
:1041CC002802030008B5024B1B681B6C019308BD49
:1041DC002802030008B5024B1B685B69019308BDFC
:1041EC006402030008B5024B1B689B68019308BD71
:1041FC006802030008B5024B1B68DB68019308BD1D
:10420C006802030008B5024B1B68DB69019308BD0B
:10421C003002030008B5024B1B681B6A019308BDF2
:10422C003002030008B5024B1B68DB68019308BD24
:10423C003C02030008B5024B1B681B69019308BDC7
:10424C003C02030008B5024B1B685B69019308BD77
:10425C003C02030008B5024B1B689B69019308BD27
:10426C003C02030008B5024B1B68DB69019308BDD7
:10427C003C02030008B5024B1B681B6A019308BD86
:10428C003C02030008B5024B1B689B6A019308BDF6
:10429C003C02030008B5024B1B681B6C019308BD64
:1042AC003C02030008B5024B1B681B68019308BD58
:1042BC004C02030008B5024B1B685B68019308BDF8
:1042CC004C02030008B5024B1B681B69019308BD27
:1042DC004C02030008B5024B1B685B69019308BDD7
:1042EC004C02030008B5024B1B689B69019308BD87
:1042FC004C02030008B5024B1B68DB69019308BD37
:10430C004C02030008B5024B1B681B6A019308BDE5
:10431C004C02030008B5024B1B685B68019308BD97
:10432C002002030008B5024B1B685B69019308BDB2
:10433C002002030008B5024B1B68DB6A019308BD21
:10434C002002030008B5034B1B68D3F88830019397
:10435C0008BD00002002030008B5034B1B68D3F80E
:10436C009430019308BD00002002030008B5024BF5
:10437C001B68DB6B019308BD4402030008B5024BBC
:10438C001B685B68019308BD4002030008B5024B33
:10439C001B689B68019308BD4002030008B5024BE3
:1043AC001B68DB68019308BD4002030008B5024B93
:1043BC001B681B69019308BD4002030008B5024B42
:1043CC001B685B69019308BD4002030008B5024BF2
:1043DC001B689B69019308BD4002030008B5024BA2
:1043EC001B68DB69019308BD4002030008B5024B52
:1043FC001B681B6A019308BD4002030008B5024B01
:10440C001B681B6B019308BD4002030008B5024BEF
:10441C001B685B6B019308BD4002030008B5024B9F
:10442C001B681B6C019308BD4002030008B5024BCE
:10443C001B685B6C019308BD4002030008B5024B7E
:10444C001B681B68019308BD1C02030008B5024BD6
:10445C001B685B68019308BD1C02030008B5024B86
:10446C001B681B6C019308BD1C02030008B5024BB2
:10447C001B685B6C019308BD1C0203000021FFF755
:10448C0051BF0000024800230360FFF73BBE00BF92
:10449C00B8E60320002240681146FFF7A7BF0022B0
:1044AC0040681146FFF7B2BF40680022FFF7A6BF75
:1044BC004068002281F00101FFF790BF00234068A3
:1044CC001A461946FFF782BF002340681A46194660
:1044DC00FFF774BF002240681146FFF767BF002248
:1044EC0040681146FFF752BF406800220221FFF7D7
:1044FC0055BF002340681A46FFF740BF024B03220A
:10450C005A60024A1A607047BCE60320D84F0B0071
:10451C007047F8B5064615460C468F18BC4206D0B7
:10452C00336814F8011B9B6830469847F6E7284619
:10453C00F8BD007C0022FFF715BE007C0021FFF7C0
:10454C0019BE007C0021FFF71DBE007C0021FFF787
:10455C0021BE007C0021FFF725BE10B514210446B6
:10456C00FFF793FD204610BD38B5044615464FF4B1
:10457C007A730022C4E90123094B21740846236095
:10458C002946FFF71FFEBF3008D16B69DB0705D545
:10459C006868FFF75BFFE868FFF758FF204638BDF7
:1045AC0014500B00704710B518210446FFF76DFD31
:1045BC00204610BDF0B5037D062B8DB00E4600F1E4
:1045CC0004074FF0000412D000F1080515F8011D86
:1045DC000A22304600F047F9AF42044419D0002CAF
:1045EC00F4D02E21304600F03BF90444EEE72F23A3
:1045FC006A4639460A208DF80040FFF7EBFD684605
:10460C0000F060FC33680246DB6869463046984728
:10461C00044620460DB0F0BD10B5054B04461122E2
:10462C0040F8043B002100F017FC204610BD00BFF1
:10463C003C500B000346074A10B543F8042B01F11C
:10464C00100251F8044B43F8044B9142F9D10A780B
:10465C001A7010BD3C500B0010B59DF8084044EA90
:10466C00032343EA024242EA0161042341600375D9
:10467C0010BD000007B5064B0360CB7800938B7818
:10468C004A780978FFF7E8FF03B05DF804FB00BF38
:10469C003C500B00014B024A1A607047C4E60320E1
:1046AC0048500B00002340681A46FFF767BE40686D
:1046BC0000220221FFF772BE002240681146FFF76C
:1046CC0065BE002240681146FFF770BE00234068AB
:1046DC001A461946FFF772BE002340681A4619465F
:1046EC00FFF774BE40680021FFF798BE40680021B8
:1046FC00FFF79CBE4068002281F00101FFF76EBEFF
:10470C0040680022FFF77ABE002240681146FFF78E
:10471C007DBE002240681146FFF768BE2DE9F043CC
:10472C0095B014460D460746FFF776FF00211C2274
:10473C000DA8009100F090FB40230C9320466B4693
:10474C000CAA0021FFF756FD044600284BD1024667
:10475C0001216868FFF72AFE02218046224668681C
:10476C00FFF724FE009E81462146002E3BD00029F7
:10477C0039D17368022B03D00A2B11D0F669F4E7F8
:10478C00B8F1000FFAD0716906A8043107ADFFF734
:10479C0071FF0FCD3C1D0FC42B6823704146EDE714
:1047AC00B9F1000FEAD07469102201A800F054FB93
:1047BC0006238DF8143001AD04F108031834186881
:1047CC0059682A4603C20833A3421546F7D101A9FA
:1047DC0006A807ADFFF72EFF0FCD3C1D0FC42B68AD
:1047EC0023704946CAE70098FFF7FCFC384615B021
:1047FC00BDE8F083024B034A1A6000225A607047EE
:10480C00C8E6032054500B00F8B506460D468F1829
:10481C000024BD420CD0336815F8011B9B68304650
:10482C009847031E01DB1C44F3E7002C08BF1C4611
:10483C002046F8BD13B50446084659B1019100F065
:10484C0041FB23680199DB680246204602B0BDE8B3
:10485C001040184702B010BD08B5FFF7EBFF08BDBC
:10486C0003689B68184730B58BB00023012A8DF87C
:10487C00243098BF0A2209AC0D46B1FBF2F101FBC2
:10488C00125303F0FF03092B94BF30333733DBB2E1
:10489C00AA4204F8013DEFD92146FFF7CBFF0BB03C
:1048AC0030BD0000014B00229A607047D0E6032017
:1048BC0010B5044608462170FFF7A4FC0023636082
:1048CC00204610BD054B02221A60054B054A9A6022
:1048DC000020C3E90000FFF71DBD00BFECE603207C
:1048EC00E0E603200000FFFF024B1A68024B1A603F
:1048FC00704700BF4CE60320F0E60320704741747C
:10490C00704708B5007CFFF7BDFC20EAE07008BDDD
:10491C0008B5007CFFF78EFC20EAE07008BD08B5F6
:10492C00007CFFF797FC40EAE07008BD08B5007CFE
:10493C00FFF788FC40EAE07008BD007CFFF792BCF2
:10494C0037B5457C04462DB1207C03B0BDE8304022
:10495C00FFF768BC007C0191FFF794FC00280199DB
:10496C00F2DC284603B030BD10B514210446FFF725
:10497C008CFB204610BD000010B54FF47A73044632
:10498C00084611460022C4E90123044B236001238D
:10499C0020746374FFF77EFC204610BDAC500B00F6
:1049AC00417470477047704708B50021007CFFF7D1
:1049BC0099FC40EAE07008BD08B50121007CFFF7C6
:1049CC0091FC40EAE07008BD08B5007CFFF782FC62
:1049DC0020EAE07008BD08B5007CFFF773FC20EA04
:1049EC00E07008BD13B50446007C0191FFF772FC22
:1049FC000028019901DC607C20B1207CFFF77AFC57
:104A0C0020EAE07002B010BD007CFFF77BBC10B553
:104A1C0014210446FFF739FB204610BD10B54FF4A6
:104A2C007A73044608460021C4E90113044B236041
:104A3C000123207463741146FFF734FC204610BD2B
:104A4C00DC500B00007C0022FFF734BC10B51422A4
:104A5C000446002100F000FA204610BD10B50F4CA2
:104A6C0088B003A8FFF7F2FF2178BFF35B8F11F03A
:104A7C0001010FD120460191FFF709FB019948B1C3
:104A8C0003AA0748FFF7CAFF2046FFF705FB0548B6
:104A9C0000F0CEF9024808B010BD00BFF4E60320C8
:104AAC00F8E60320B1490B00002240681146FFF7DD
:104ABC007DBC002240681146FFF798BC002240687C
:104ACC001146FFF7A3BC40680022FFF797BC406873
:104ADC00002281F00101FFF781BC002340681A46D7
:104AEC001946FFF773BC002340681A461946FFF7B6
:104AFC0065BC002240681146FFF748BC40680022A4
:104B0C000221FFF74BBC002340681A46FFF736BC66
:104B1C00024B04225A60024A1A6070470CE70320C9
:104B2C000C510B00014B1860704700BF50E603207E
:104B3C0008B50B4B43B1FFF791FF03681B6998470E
:104B4C00002801DDAFF30080064B43B100F04AF9B9
:104B5C0003681B699847002801DDAFF3008008BD8E
:104B6C00000000000000000008B5FFF7E1FFFFF7B0
:104B7C00D9FA014B186008BD28E703200548064AFE
:104B8C00064908B5121A00F059F9054B054A1A6086
:104B9C0008BD00BF00F4032004F4032004520B00F2
:104BAC0000F403201E1C279A07B5002300931A4615
:104BBC006FF07701FFF7D0FB03B05DF804FB00004A
:104BCC0007B543880A2B08D0502B0BD1094B1B6817
:104BDC004BB103B05DF804EB1847FFF7E5FF03B0EA
:104BEC005DF804FB002300931A466FF07701FFF782
:104BFC00B3FBF4E718E7032010B512480021FFF7C8
:104C0C0035FC114B1A68114B9A42114B0CBF012207
:104C1C0000221A7001D0FFF7B1FFFFF77BFA0446B0
:104C2C0000F022F90B4B13B12046AFF300800021AA
:104C3C000848FFF79BFBBDE8104007480021FFF731
:104C4C0081BB00BF314B0B0000F403201E1C279AC4
:104C5C0014E7032000000000CD4B0B00232813B5F4
:104C6C0002D9002002B010BDA0F10B03022B1AD800
:104C7C00174C2178BFF35B8F11F001010BD120464B
:104C8C000191FFF704FA019928B11248FFF710FEC1
:104C9C002046FFF701FA0F4B1878FFF7BBFA0028F4
:104CAC00DFD10120DEE7012809D800F05BF80021F4
:104CBC00007CFFF77FFA80F00100C0B2D2E7093820
:104CCC000128EED800F08EF8007CFFF7D3FAF2E75B
:104CDC001CE7032020E70320232838B504460D46A3
:104CEC000AD8FF2908D0FFF7B9FF28B1294620467A
:104CFC00BDE83840FFF71EBA38BD38B504460D463E
:104D0C00FFF720FAFF2810D0062804D84D2323FAE9
:104D1C0000F0C30709D42046FFF7A0FF28B12946AD
:104D2C002046BDE83840FFF715BA38BD7047000083
:104D3C0038B50A4B0360012304464361084920201F
:104D4C0000F074F8202560600549A560284600F045
:104D5C006DF8C4E90305204638BD00BF18000100FA
:104D6C0040510B0030B50E4D2978BFF35B8F11F01D
:104D7C00010487B011D12846FFF789F968B168465C
:104D8C00FFF7D6FF6A4621460648FFF7EDFB28469B
:104D9C00FFF782F9044800F04BF8024807B030BD29
:104DAC002CE7032030E70320394D0B00704700003F
:104DBC0038B5044614252A46002100F04DF825800C
:104DCC004025074925812846258200F02FF8044903
:104DDC006060284600F02AF8E060204638BD00BF2D
:104DEC0040510B0030B50E4D2978BFF35B8F11F09D
:104DFC00010487B011D12846FFF749F968B101A821
:104E0C00FFF7D6FF01AA21460648FFF7B5FD284655
:104E1C00FFF742F9044800F00BF8024807B030BD28
:104E2C0044E7032048E70320B94D0B00FFF72BB9EB
:104E3C00002301461A46184600F04CB80A44914229
:104E4C0000F1FF3300D1704710B511F8014B03F896
:104E5C00014F9142F9D110BD02440346934200D157
:104E6C00704703F8011BF9E738B5104B1D68AB6BA5
:104E7C000446B3B91820FFF7E1FA0246A86320B93B
:104E8C000B4B0C484221FFF7E9FA0B490B4BC0E9DD
:104E9C0000130B4B83600B23838100210120C2E99B
:104EAC000401AB6B00221C615A6138BD50E6032033
:104EBC0041510B0058510B000E33CDAB34126DE643
:104ECC00ECDE0500034613F8012B002AFBD1181A5F
:104EDC00013870472DE9F843DFF8B8800646D8F85A
:104EEC0000001F460D46914600F056F8254B1C68F5
:104EFC0034B9254C1C60254B13B11B68C4F88830A1
:104F0C0063681F2B07DDD8F8000000F047F84FF05E
:104F1C00FF30BDE8F8834EB3D4F8880088B91C4B39
:104F2C0023B9D8F8000000F038F8F0E74FF484709B
:104F3C00FFF784FA0028F4D00023C0E94033C4F80A
:104F4C008800636840F8239001229A4000EB8301AB
:104F5C00D0F800311343C0F80031022EC1F8807034
:104F6C0002BFD0F804311343C0F804316368D8F899
:104F7C0000005A1C0233626044F8235000F00EF813
:104F8C000020C6E7E8E703205CE7032000000000F0
:104F9C0049440B00B4E6032070477047704700008B
:104FAC001D400B0059400B0081400B0085400B004D
:104FBC0000000000496E697469616C697A696E67FA
:104FCC002E2E2E000000000000000000FF440B00FD
:104FDC00F5440B00EB440B00E1440B00D5440B00F3
:104FEC00C9440B00F1460B00F9460B00BD440B0005
:104FFC00B5440B00AB440B00A1440B0029470B003C
:10500C0000000000000000001D450B0067450B0070
:10501C003F450B001F450B0047450B004F450B0050
:10502C0057450B005F450B0000000000000000001E
:10503C00C1450B00B1450B00B3450B00617070000E
:10504C000000000000000000B1460B00BB460B0046
:10505C00C5460B00CF460B00D9460B00E5460B00AE
:10506C00F1460B00F9460B0001470B000D470B00F6
:10507C0015470B001F470B0029470B0025592D2501
:10508C006D2D25645425483A254D3A2553257A0033
:10509C0061736374696D650000000000000000001E
:1050AC0009490B0075490B004D490B0015480B00C5
:1050BC001D490B0039490B002B490B0047490B00CC
:1050CC000B490B000F490B00000000000000000012
:1050DC00B3490B001B4A0B00F1490B0015480B00A0
:1050EC00E3490B00B5490B00C5490B00154A0B00F1
:1050FC00D5490B00AD490B0000000000000000007A
:10510C00134B0B00094B0B00FF4A0B00B54A0B006D
:10511C00F34A0B00E74A0B00F1460B00F9460B0073
:10512C00DB4A0B00D34A0B00C94A0B00BF4A0B00E9
:10513C0029470B00005245454E54206D616C6C6F35
:10514C006320737563636565646564002F746D70AB
:10515C002F6A656E6B696E732D4743432D31302D6D
:10516C00706970656C696E652D34385F3230323021
:10517C00313132345F313630363138303633392FC5
:10518C007372632F6E65776C69622F6E65776C69CD
:10519C00622F6C6962632F7374646C69622F726125
:1051AC006E642E630000000009410B0091440B005B
:1051BC0009450B00A1460B0001480B00B1480B0040
:1051CC00D1480B00F5480B001D4B0B0000000000F4
:0451DC0000000000CF
:1051E000040000001400000003000000474E5500BA
:1051F0004D1811E750DD22F70B851C03B1094C72E5
:045200004387C2E935
:0452040000000000A6
:10520800070000009C500B0054E60320000000003B
:105218000000000000000000000000000000000086
:105228000000000000000000000000000000000076
:105238000000000000000000000000000000000066
:105248000000000000000000000000000000000056
:105258000000000000000000000000000000000046
:10526800000000000000000000000000ECE7032040
:10527800FFFFFFFF00000102030405060708090AF3
:105288000B0C0D0E0F101112131415161718191AEE
:085298001B1C1D1E1F20280035
:0452A00078563412F6
:04000003B000401CED
:00000001FF
