:02000002B0004C
:1040000000400B0008730B00000006000C000502C6
:0840100004016810000000002B
:04401800286F0B0002
:10401C0009480A49884208B505D0094A824202D0AB
:10402C00121A02F0ABFE0748074A0021121A02F0DE
:10403C00B3FE014808BD00BFA8E5032070720B0059
:10404C0018E6032018E60320EDE7032070B5074EB1
:10405C00074C01F031FFA41BA4080025AC4200D191
:10406C0070BD56F8043B98470135F7E718720B0002
:10407C003C720B0000F016B808B500F057F8BDE81C
:10408C00084001F0D1BE00F003BE00F001BE00F00C
:10409C0007BE0078B0FA80F0400970470123037026
:1040AC00704700001FB501F003FE4FF4E13101F041
:1040BC00F3FD01F0FDFD184901F049FB01F04AFF49
:1040CC00164A01465723164800F01EFA28B901F08B
:1040DC00EFFD144901F03BFBFEE701F0E9FD12494D
:1040EC0001F035FB40F29B134FF48052CDE90132C5
:1040FC004FF4C87300930422032309481F2100F0D6
:10410C00C3FA07480A2100F02FFA0548002105B030
:10411C005DF804EB00F032BA3C6F0B00801A06001D
:10412C002CE603204C6F0B00806F0B002DE9F04345
:10413C006148624D624F89B000F0CEF904460646E4
:10414C0000F08CFB002840D0DFF8AC9100F004FCB0
:10415C00D9F80030A0EB030800F0FEFBC9F8000012
:10416C00404602F0B3F8574B002202F043FA0246E5
:10417C000B460020544902F03DFA02F009FC9FED79
:10418C00537A286007EE900AF4EEC77AF1EE10FA33
:10419C001BD5B3EE047AF4EEC77AF1EE10FA14DD07
:1041AC004B484C490278FCEEE77A17EE903A8B5468
:1041BC00013202F003024B7802700A7813448A78B9
:1041CC001344CA7813449B103B6001F071FD4249C3
:1041DC0001F0AAFA01F06CFD002C804603DA2D21C7
:1041EC0001F0A6FA64420A222146404601F0B9FACF
:1041FC0001F05EFD394901F097FA01F059FD95ED9A
:10420C00000A022101F094FB01F052FD344901F047
:10421C008BFA01F04DFD3C68002C804649DA2D21CB
:10422C0001F086FA61422F4F0A22404601F099FABA
:10423C003B680133642B3B602BDD95ED000A0621B6
:10424C0004A801F048FC284B049A1B788DF8003028
:10425C0026493C2302A800F0D5FE039C7CB1636880
:10426C00013B63605BB9236820469B689847A36851
:10427C00013BA3601BB923682046DB68984704A860
:10428C0001F0CCFB01F014FD194901F04DFA0023AB
:10429C003B604CF24F339E4204DC01F009FD1549A2
:1042AC0001F042FA01F004FD09B0BDE8F04301F061
:1042BC0042BA2146B7E700BF2CE6032020E60320D4
:1042CC001CE6032000408F4000004E4000007F435E
:1042DC0068E6032069E60320BC6F0B00C06F0B007F
:1042EC00C76F0B0028E6032018E60320D26F0B00E3
:1042FC00DC6F0B00E86F0B0024E6032008B5054BC0
:10430C0001201870002100F01FFCBDE80840024895
:10431C0000F004B818E603202CE60320704770B5B3
:10432C000446006816460D4601F096F820680368AE
:10433C0031469B6898470021206801F094F820686A
:10434C000122294601F085F8206803681B6998470B
:10435C0020B1206803685B699847C0B270BD0179D1
:10436C000422FFF7DCBF01790622FFF7D8BF2DE945
:10437C00F7430446FFF7F7FF05462046FFF7EFFF2C
:10438C00854200F08E80451B4FF0570120686679FE
:10439C0048BF203501F064F82068036807219B684A
:1043AC009847206801F063F86E4306EB46064FF021
:1043BC0020084FF00009002E74DD202EC8BF627952
:1043CC002068C9BF02EB42023746B8FBF2F75743ED
:1043DC003A465721F61B01F03CF8002FEBDD94F820
:1043EC00383020688DF80790013303F0030384F80C
:1043FC00383003685B6998478DF8060020680368BD
:10440C005B6998478DF80500206803685B699847DD
:10441C0094F838308DF80400019A0233C2F311027B
:10442C0044F823206379012B19D9206803685B6950
:10443C0098478DF80600206803685B6998478DF8EB
:10444C000500206803685B69984794F838308DF84C
:10445C000400019A0633C2F3110244F82320637955
:10446C00022B19D9206803685B6998478DF8060000
:10447C00206803685B6998478DF80500206803681D
:10448C005B69984794F838308DF80400019A0A3328
:10449C00C2F3110244F823206379A3EB83031F4476
:1044AC009BE70025A8B203B0BDE8F08370B50546C4
:1044BC000E4600F051FA044600F04EFA001BB042D2
:1044CC0008D82846FFF753FF012804D0012000F03C
:1044DC0017FCF1E7002070BD10B5FA210446FFF778
:1044EC00E5FF20B194F83830063354F8230010BDA2
:1044FC000179FF22FFF713BF10B5FE2201790446A4
:10450C00FFF70DFFA07110BD37B5044608462160BA
:10451C001D46019200F06EFF0199206800F066FFC5
:10452C0025712046FFF7E4FF152805D12046FFF73B
:10453C00E3FF012003B030BD0020FBE770B504465B
:10454C00006816461D4600F087FF20680368314658
:10455C009B6898472068036829469B6898472068A1
:10456C00BDE8704000F083BF0B460C220179FFF7C9
:10457C00E5BF0B460D220179FFF7E0BF0B460E227B
:10458C000179FFF7DBBF0B4610220179FFF7D6BF8D
:10459C0010B50446017900230422FFF7CFFF2179DF
:1045AC00204600230522FFF7C9FF2179204600236E
:1045BC00BDE810400622FFF7C1BF2DE9F0410D46C2
:1045CC0017460A46017904461E46FFF7A8FE3840F6
:1045DC0046EA000321792A462046BDE8F041FFF760
:1045EC00ADBF38B5BF22402309210446FFF7E5FFD4
:1045FC0000F0B2F9054600F0AFF9401B63280AD869
:10460C00217909222046FFF78AFE430603D50120B3
:10461C0000F076FBEFE738BD0B46F8220921FFF7D7
:10462C00CCBF0B469F220A21FFF7C7BF0B46E322E4
:10463C000A21FFF7C2BF0B46FC220A21FFF7BDBFC0
:10464C0001391346032914D8DFE801F002060B0EDA
:10465C00F8221121FFF7B1BF1B0103F0F0038F22E9
:10466C00F7E7F8221221F5E71B0103F0F0038F2284
:10467C00F8E770470B461F220821FFF79EBF102357
:10468C00EF220821FFF799BF2DE9F0471546DDE928
:10469C000879DDF828A0044688461E46FFF7A1FFDE
:1046AC00012D49D100212046FFF7E4FF2046FFF7FA
:1046BC00E6FF032E54D107212046FFF7ADFFBAF5D4
:1046CC00805F667151DA00212046FFF7AAFF632F45
:1046DC0058DC00212046FFF7A9FFB9F1750F71DCFA
:1046EC0000212046FFF7A7FF41462046FFF73CFF7D
:1046FC0041462046FFF73DFF41462046FFF73EFF6F
:10470C0041462046FFF73FFF012211462046FFF7A6
:10471C0097FF012E0BD9022211462046FFF790FF7E
:10472C00022E04D0032211462046FFF789FF2046B3
:10473C00BDE8F047FFF72CBF022D01D12021B2E7D5
:10474C00042D01D14021AEE7082D01D16021AAE74B
:10475C00102D01D18021A6E7202DF3D1A021A2E7B5
:10476C00022E0CBF03210221A6E7BAF5005F01DA85
:10477C002021A9E7BAF5804F01DA4021A4E7A2D1A4
:10478C006021A1E7C72F01DC0421A3E7B7F5C87F9F
:10479C0001DA08219EE7B7F5487F01DA0C2199E789
:1047AC00B7F57A7F01DA102194E7B7F5C86F01DA13
:1047BC0014218FE7B7F5486F01DA18218AE788D101
:1047CC001C2187E7B9F1D60F01DC012189E7B9F586
:1047DC00CD7F01DC022184E740F29B1399457FF4E5
:1047EC007FAF03217DE70368C3EBC13103EB2113DA
:1047FC00036043F3CF307047F0B5154E154933784D
:10480C00154F21F81300A3F10B0202F01F02A3F1C4
:10481C00160E31F91200002200030EEB02049D1A51
:10482C0004F01F0405F01F0531F8144031F8155041
:10483C0037F802CB01322C440B2A1CFB0400ECD1C0
:10484C00013303F01F03337040F3CF30F0BD00BFD2
:10485C00BEE6032078E60320F46F0B0038B52C4D30
:10486C002C4C2B88238082B211462B48FFF7BBFFC0
:10487C002A4B1880101A00B2FFF7BEFF2388B4F938
:10488C000010288023EA0003DB0B254C02461AD0CB
:10489C00244B2549B3F900300B802449B1F90000B1
:1048AC0023491B1A0880012140F2D2302180153B8C
:1048BC00204983424FF000040C808CBF0020012063
:1048CC00184B1A8038BD0029CCBF01200020002ACB
:1048DC00C8BF002038B12380164B01211980134B1F
:1048EC0000201A80EEE7B4F900308A42D4BF0023CE
:1048FC0003F00103002BE3D10E4BB3F900308A42D5
:10490C00ACBF002303F00103002BE8D1DAE700BFB2
:10491C006EE6032070E60320B8E6032076E603205B
:10492C00C0E6032072E60320A8E5032074E603200A
:10493C00AAE50320BCE6032008B5024B1B685B6CA0
:10494C00019308BD4802030008B5024B1B685B6865
:10495C00019308BD1802030008B5024B1B685B6984
:10496C00019308BD1802030008B5024B1B681B68B5
:10497C00019308BD2802030008B5024B1B68DB68D5
:10498C00019308BD2802030008B5024B1B689B6904
:10499C00019308BD2802030008B5024B1B68DB69B4
:1049AC00019308BD2802030008B5024B1B681B6A63
:1049BC00019308BD2802030008B5024B1B685B6A13
:1049CC00019308BD2802030008B5024B1B689B6AC3
:1049DC00019308BD2802030008B5024B1B68DB6A73
:1049EC00019308BD2802030008B5024B1B681B6B22
:1049FC00019308BD2802030008B5024B1B681B6C11
:104A0C00019308BD2802030008B5024B1B681B6DFF
:104A1C00019308BD2802030008B5024B1B685B69B3
:104A2C00019308BD6402030008B5024B1B689B6828
:104A3C00019308BD6802030008B5024B1B68DB68D4
:104A4C00019308BD6802030008B5024B1B68DB68C4
:104A5C00019308BD3C02030008B5024B1B681B699F
:104A6C00019308BD3C02030008B5024B1B685B694F
:104A7C00019308BD3C02030008B5024B1B689B69FF
:104A8C00019308BD3C02030008B5024B1B68DB69AF
:104A9C00019308BD3C02030008B5024B1B689B6ADE
:104AAC00019308BD3C02030008B5024B1B681B6C4C
:104ABC00019308BD3C02030008B5024B1B681B6840
:104ACC00019308BD4C02030008B5024B1B685B68E0
:104ADC00019308BD4C02030008B5024B1B681B690F
:104AEC00019308BD4C02030008B5024B1B685B69BF
:104AFC00019308BD4C02030008B5024B1B689B696F
:104B0C00019308BD4C02030008B5024B1B68DB691E
:104B1C00019308BD4C02030008B5024B1B681B6ACD
:104B2C00019308BD4C02030008B5024B1B685B687F
:104B3C00019308BD2002030008B5024B1B685B699A
:104B4C00019308BD2002030008B5024B1B68DB6A09
:104B5C00019308BD2002030008B5024B1B68DB6CF7
:104B6C00019308BD2002030008B5024B1B685B6D66
:104B7C00019308BD2002030008B5034B1B68D3F852
:104B8C008830019308BD00002002030008B5034BD8
:104B9C001B68D3F89430019308BD00002002030079
:104BAC0008B5024B1B685B69019308BD4402030006
:104BBC0008B5024B1B681B6A019308BD4402030035
:104BCC0008B5024B1B68DB6B019308BD4402030064
:104BDC0008B5024B1B685B68019308BD40020300DB
:104BEC0008B5024B1B689B68019308BD400203008B
:104BFC0008B5024B1B68DB68019308BD400203003B
:104C0C0008B5024B1B681B69019308BD40020300E9
:104C1C0008B5024B1B685B69019308BD4002030099
:104C2C0008B5024B1B689B69019308BD4002030049
:104C3C0008B5024B1B68DB69019308BD40020300F9
:104C4C0008B5024B1B681B6A019308BD40020300A8
:104C5C0008B5024B1B681B6B019308BD4002030097
:104C6C0008B5024B1B685B6B019308BD4002030047
:104C7C0008B5024B1B681B6C019308BD4002030076
:104C8C0008B5024B1B685B6C019308BD4002030026
:104C9C0008B5024B1B681B68019308BD1C0203007E
:104CAC0008B5024B1B685B68019308BD1C0203002E
:104CBC0008B5024B1B689B68019308BD1C020300DE
:104CCC0008B5024B1B68DB6A019308BD1C0203008C
:104CDC0008B5024B1B681B6B019308BD1C0203003B
:104CEC0008B5024B1B681B6C019308BD1C0203002A
:104CFC0008B5024B1B685B6C019308BD1C020300DA
:104D0C000021FFF719BF10B5836804460BB901F0F9
:104D1C0087F9C3689847A3681BB103222146204634
:104D2C00984720461021BDE81040FFF7B0B910B5E8
:104D3C008368044613B1032201469847204610BDF0
:104D4C0010B54368013B0446436063B903689B6834
:104D5C009847A368013BA3602BB923682046DB6806
:104D6C00BDE81040184710BD10B50446006808B1E6
:104D7C00FFF7E6FF204610BD13B50B460246D0E9FF
:104D8C0000016C4684E8030093E8030082E803000A
:104D9C0094E8030083E8030002B010BD024800232E
:104DAC000360FFF7C9BD00BFC4E6032070470020B5
:104DBC00704710B510210446FFF769F9204610BD65
:104DCC0008B5FFF7F6FF08BD30B500224FF69C740E
:104DDC00026084808D888C800C68858004600A60F9
:104DEC0030BD10B504460068FFF75AFF204610BDD1
:104DFC0038B5C468F4B12378022B03D104F10C004C
:104E0C00FFF7EFFF656835B12846FFF790FF1021DB
:104E1C002846FFF73CF9A56835B12846FFF787FF10
:104E2C0010212846FFF733F920461421BDE83840FD
:104E3C00FFF72DB938BD0B6803604B68436013B1A5
:104E4C005A6801325A60704737B5044668460D46B9
:104E5C00FFF7F1FF009B019A23606260002301A819
:104E6C0001930093FFF780FF35B1281DFFF77CFFFE
:104E7C0008212846FFF70BF9204603B030BD8268A5
:104E8C0010B50AB901F0CCF8BDE81040C36818475A
:104E9C0008B5006800F11001FFF7F1FF08BD82684A
:104EAC0010B50AB901F0BCF8BDE81040C36818474A
:104EBC0008B5006800F11001FFF7F1FF08BD000014
:104ECC0038B500230446036010200D46FFF7DBF8CD
:104EDC0028B10123C0E90133024B0360C560206097
:104EEC00204638BD14700B0038B5002383608B68E6
:104EFC0004460D462BB102229847EB68E360AB6881
:104F0C00A360204638BD0000F0B589B0046868463F
:104F1C00FFF75AFF4FF00203D4E84F2F002A03D1BA
:104F2C00C4E8413F0029F7D125D104F10C056946AD
:104F3C002846FFF749FFBFF35B8F01236370002006
:104F4C0004F10803BFF35B8F53E8006F43E80002E2
:104F5C00002AF9D1BFF35B8F6EB1FFF7FDFD78B17D
:104F6C0029463046FFF78BFF3046FFF7E0FE102155
:104F7C003046FFF78CF86846FFF733FF09B0F0BDF9
:104F8C00314602A8FFF7B0FFE068B4F9105008B141
:104F9C0001F038FF06901020ADF81C50FFF773F8A5
:104FAC000546E8B1002787601820FFF76CF8044627
:104FBC0088B10146876002A8FFF7DEFE049BA26859
:104FCC00A360059B049206A9E268E36004F110005B
:104FDC000592FFF7F9FE084BEB60084B2C60AB60B9
:104FEC0006A8FFF7FEFE02A8FFF7A1FE0022294645
:104FFC000348FFF7B9FDB7E79D4E0B0021510B009D
:10500C00134D0B002DE9F04F8BB005469DF850A0C9
:10501C000F4690469946FFF7C3FD07AE834638BB53
:10502C004FF62E73059005A93046ADF81830FFF7F2
:10503C00CBFE1420FFF727F8044648B10223037077
:10504C000123C0E901BB437031460C30FFF7BCFEB5
:10505C002846214640F8044BFFF732FF3046FFF755
:10506C00C0FE05A8FFF7BDFE28460BB0BDE8F08FCB
:10507C000C2300241420CDE908440793FFF703F810
:10508C00014618B1C0E901440470447004A80391AE
:10509C00FFF716FF1E4B08930820FEF7F4FF04469B
:1050AC0010B103A9FFF7C7FE00965FFA8AF34A46D0
:1050BC00414638460994FFF77BFDB8B9039B5B78F2
:1050CC0003F0FF0293B94FF69C7305A903A8059250
:1050DC00ADF81830FFF718FF05A8FFF782FE05A8FA
:1050EC000999FFF7B1FE06A8FFF73EFE03A905A834
:1050FC00FFF7A1FE059B069A2B606A60002306A8A9
:10510C0006930593FFF730FE04A8FFF72DFEABE7DF
:10511C009D510B00012AF8B5054603D10B680360BD
:10512C000020F8BD022A10D0032AF9D10468002C03
:10513C00F6D004F11000FFF754FE2046FFF7F7FD00
:10514C0018212046FEF7A3FFEAE718200E68FEF7A9
:10515C009AFF044650B13146FFF7C6FE3069B6F9E6
:10516C00147008B101F04EFE2061A7822C60D7E7C5
:10517C0038B5002383608B6804460D462BB10222A0
:10518C009847EB68E360AB68A360204638BD00002D
:10519C00F0B589B004460D4601A81146FFF754FE40
:1051AC00A4B124B21DB1284601F02CFE054601A87D
:1051BC0003A90395ADF81040FFF7A6FE03A8FFF76F
:1051CC0010FE02A8FFF7D0FD09B0F0BD019D012330
:1051DC00D5E84F2F002A03D1C5E8413F0029F7D16C
:1051EC00EFD12B73BFF35B8F6B702B1DBFF35B8FFA
:1051FC0053E8006F43E80042002AF9D1BFF35B8FFC
:10520C00002EDED02046FFF7A7FC074660B105F163
:10521C000C013046FFF743FE3046FFF788FD1021A6
:10522C003046FEF734FFCCE7314603A8FFF7A0FF6A
:10523C002B7B8DF81C301020FEF725FF0546D0B1D6
:10524C0087601420FEF71FFF044678B18760014683
:10525C0003A8FFF791FD059BA268A360069B05922E
:10526C00E268E3609DF81C3006922374064BEB60F9
:10527C00064B2C60AB6003A8FFF759FD00222946B2
:10528C000348FFF771FCC7E7BD4E0B00A1520B00A2
:10529C00134D0B00012A70B5044603D10B68036053
:1052AC00002070BD022A0CD0032AF9D10468002C0E
:1052BC00F6D02046FFF73BFD14212046FEF7E7FE13
:1052CC00EEE714200E68FEF7DEFE054620B13146EF
:1052DC00FFF74EFF337C2B742560E1E7002240681A
:1052EC001146FFF7ADBC002240681146FFF7B8BC71
:1052FC0040680022FFF7ACBC4068002281F001013D
:10530C00FFF796BC002340681A461946FFF788BC85
:10531C00002340681A461946FFF77ABC0022406801
:10532C001146FFF76DBC002240681146FFF758BCD0
:10533C00406800220221FFF75BBC002340681A463C
:10534C00FFF746BC024B03225A60024A1A607047B0
:10535C00C8E6032030700B007047F8B506461546BA
:10536C000C468F18BC4206D0336814F8011B9B689E
:10537C0030469847F6E72846F8BD007C0022FFF738
:10538C0013BB007C0021FFF717BB007C0021FFF74B
:10539C001BBB007C0021FFF71FBB007C0021FFF72B
:1053AC0023BB10B514210446FEF771FE204610BD38
:1053BC0038B5044615464FF47A730022C4E901232C
:1053CC00094B2174084623602946FFF715FBBF30B3
:1053DC0008D16B69DB0705D56868FFF761FCE868E5
:1053EC00FFF75EFC204638BD6C700B00007C002281
:1053FC00FFF7BABA0023007C1A461946FFF7BCBA6D
:10540C007FB500221423CDE90122ADF804300B78CE
:10541C008DF808304B680393CB680493007C0B7AAF
:10542C00059301A9FFF7F0FA07B05DF804FB1FB56F
:10543C00003B8DF800104FF06401039118BF01235D
:10544C00694601928DF80830FFF7DAFF05B05DF878
:10545C0004FB0123FFF7EBBF007C0022FFF794BA9B
:10546C00C9B2FFF7F9BF007C0022FFF795BA012102
:10547C00FFF7F9BF704710B518210446FEF707FE79
:10548C00204610BDF0B5037D062B8DB00E4600F105
:10549C0004074FF0000412D000F1080515F8011DA7
:1054AC000A22304600F05DF9AF42044419D0002CBA
:1054BC00F4D02E21304600F03BF90444EEE72F23C4
:1054CC006A4639460A208DF80040FFF7A5FA68466F
:1054DC0001F0B5FC33680246DB68694630469847F4
:1054EC00044620460DB0F0BD10B5054B0446112204
:1054FC0040F8043B002101F04FFC204610BD00BFDA
:10550C0094700B000346074A10B543F8042B01F1C5
:10551C00100251F8044B43F8044B9142F9D10A782C
:10552C001A7010BD94700B0010B59DF8084044EA39
:10553C00032343EA024242EA0161042341600375FA
:10554C0010BD000007B5064B0360CB7800938B7839
:10555C004A780978FFF7E8FF03B05DF804FB00BF59
:10556C0094700B00014B024A1A607047D0E603207E
:10557C00A0700B00002340681A46FFF729BB406857
:10558C0000220221FFF734BB002240681146FFF7CE
:10559C0027BB002240681146FFF732BB002340684E
:1055AC001A461946FFF734BB002340681A461946C1
:1055BC00FFF736BB40680021FFF75ABB406800215B
:1055CC00FFF75EBB4068002281F00101FFF730BBA2
:1055DC0040680022FFF73CBB002240681146FFF7F1
:1055EC003FBB002240681146FFF72ABB2DE9F04370
:1055FC0095B014460D460746FFF776FF00211C2296
:10560C000DA8009101F0C8FB40230C9320466B467B
:10561C000CAA0021FFF710FA044600284BD10246D1
:10562C0001216868FFF7ECFA02218046224668687F
:10563C00FFF7E6FA009E81462146002E3BD000295A
:10564C0039D17368022B03D00A2B11D0F669F4E719
:10565C00B8F1000FFAD0716906A8043107ADFFF755
:10566C0071FF0FCD3C1D0FC42B6823704146EDE735
:10567C00B9F1000FEAD07469102201A801F08CFB7B
:10568C0006238DF8143001AD04F1080318341868A2
:10569C0059682A4603C20833A3421546F7D101A91B
:1056AC0006A807ADFFF72EFF0FCD3C1D0FC42B68CE
:1056BC0023704946CAE70098FFF7B6F9384615B08B
:1056CC00BDE8F083024B034A1A6000225A6070470F
:1056DC00D4E60320AC700B00F8B506460D468F18C7
:1056EC000024BD420CD0336815F8011B9B68304672
:1056FC009847031E01DB1C44F3E7002C08BF1C4633
:10570C002046F8BD13B50446084659B1019101F085
:10571C0096FB23680199DB680246204602B0BDE87F
:10572C001040184702B010BD08B5FFF7EBFF08BDDD
:10573C0003689B68184738B50D210546FFF7F8FF3D
:10574C000A2104462846FFF7F3FF204438BD38B53C
:10575C000546FFF7D7FF04462846FFF7ECFF204429
:10576C0038BD30B58BB00023012A8DF8243098BF9A
:10577C000A2209AC0D46B1FBF2F101FB125303F006
:10578C00FF03092B94BF30333733DBB2AA4204F842
:10579C00013DEFD92146FFF7B5FF0BB030BD00003E
:1057AC002DE9F74F55EC104B06460F4610EE102A1C
:1057BC0010EE100A2B46294601F08CF840B15349E3
:1057CC003046FFF79FFF8246504603B0BDE8F08F8E
:1057DC0025F000494E4B4FF0FF322046494601F070
:1057EC0079F848B94A4B4FF0FF322046494601F050
:1057FC0053F808B94749E3E7474B4FF0604220465E
:10580C00294601F05DF808B14449D9E7444B4FF003
:10581C0060422046294601F035F80028F4D10022D8
:10582C0000232046294601F02DF8D0B12D21304619
:10583C00FFF77EFF05F1004382461D463949DFF82C
:10584C00EC904FF0000B00204FF000085FFA8BF348
:10585C009F4208D942464B4600F0CCFE0BF1010B9F
:10586C00F4E78246EAE722462B4600F0E3FB0D46BE
:10587C00044601F06DF8804600F018FD02460B4618
:10588C002046294600F0D4FB0A2204460D46304639
:10589C004146FFF766FF8244002F95D02249DFF87E
:1058AC008C903046FFF72EFF4FF000088244002FFB
:1058BC008AD042464B462046294600F071FD0446EC
:1058CC000D4601F01DF8B0F1000B1CDA2D2130460D
:1058DC00FFF72EFFCBF1000103460A22304601935D
:1058EC00FFF73FFF019B18448244584600F0EEFC42
:1058FC0002460B462046294600F09AFB013F04461F
:10590C000D46FFB2D3E759460023E6E7E0700B00E3
:10591C00FFFFEF7FE4700B00FFFFEF41E8700B001F
:10592C00FFFFEFC10000E03F4A6F0B000000244076
:10593C0038B5044610EE100ACDB200F0D9FC41EC9B
:10594C00100B29462046BDE83840FFF729BF000060
:10595C00014B00229A607047DCE603202DE9F14FE1
:10596C0057EC106B80460C4610EE100A00220023F8
:10597C00394600F087FF28B107F100431F462D235D
:10598C0004F8013B00234FF001090A22D9B28845E3
:10599C0003D902FB09F90133F8E7484600F096FCFD
:1059AC0032463B4600F0FCFC06460F4601F058F828
:1059BC008A4605468B4600F0BDFC02460B46304637
:1059CC00394600F035FB144B002200F06FFF10B18C
:1059DC0001354AF1000B4A462846D317594601F0C7
:1059EC0027F80123154621460A2200F0D6F9B8F112
:1059FC00000F0ED0204601F022FA2E23211823543A
:105A0C000A2243460131284601B0BDE8F04F00F0B0
:105A1C00C4B901B0BDE8F08F0000E03F10B50446FA
:105A2C000068FFF73DF9204610BD10B5044600682C
:105A3C0008B1FFF735F90023C4E90133236010BD29
:105A4C0038B504460D4600680131FFF731F910B145
:105A5C00C4E90005012038BD10B50368044623B124
:105A6C0043688B4201D3012010BD2046FFF7E8FFAD
:105A7C000028F9D0A368002BF5D122681370F2E747
:105A8C0037B50D46114601920446FFF7E5FF019A22
:105A9C0028B92046FFF7C9FF204603B030BDA260ED
:105AAC002946206801F06AF92268A3680021D154C4
:105ABC00F2E713B5044659B10846019101F0BFF95C
:105ACC00019902462046FFF7DBFF204602B010BDCD
:105ADC00FFF7ABFFF9E770B510EE106A8AB00D4610
:105AEC0000211D220446C0E900118160017302A847
:105AFC00019101F051F9304600F0FAFBEDB241ECA6
:105B0C00100B01A92846FFF729FF01A92046FFF732
:105B1C00D0FF20460AB070BD054B02221A60054B1F
:105B2C00054A9A600020C3E90000FEF7FDBF00BFE4
:105B3C00F8E60320ECE603200000FFFF024B1A6896
:105B4C00024B1A60704700BFACE50320FCE6032053
:105B5C0070474174704708B5007CFEF79DFF20EA42
:105B6C00E07008BD08B5007CFEF776FF20EAE07017
:105B7C0008BD08B5007CFEF77FFF40EAE07008BD69
:105B8C0008B5007CFEF770FF40EAE07008BD007CB1
:105B9C00FEF77ABF37B5457C04462DB1207C03B0A7
:105BAC00BDE83040FEF750BF007C0191FEF774FF5A
:105BBC0000280199F2DC284603B030BD10B5142141
:105BCC000446FEF764FA204610BD000010B54FF4F1
:105BDC007A730446084611460022C4E90123044B9B
:105BEC002360012320746374FEF75EFF204610BD12
:105BFC0010710B00417470477047704708B5002155
:105C0C00007CFEF779FF40EAE07008BD08B5012181
:105C1C00007CFEF771FF40EAE07008BD08B5007C1F
:105C2C00FEF762FF20EAE07008BD08B5007CFEF7C5
:105C3C0053FF20EAE07008BD13B50446007C0191C7
:105C4C00FEF752FF0028019901DC607C20B1207C1A
:105C5C00FEF75AFF20EAE07002B010BD007CFEF7A0
:105C6C005BBF10B514210446FEF711FA204610BD97
:105C7C0010B54FF47A73044608460021C4E90113A9
:105C8C00044B23600123207463741146FEF714FF48
:105C9C00204610BD40710B00007C0022FEF714BFA3
:105CAC0010B514220446002101F076F8204610BDF0
:105CBC0010B50F4C88B003A8FFF7F2FF2178BFF3A3
:105CCC005B8F11F001010FD120460191FEF7E1F934
:105CDC00019948B103AA0748FFF7CAFF2046FEF70F
:105CEC00DDF9054801F044F8024808B010BD00BFCA
:105CFC0000E7032004E70320055C0B00002240684A
:105D0C001146FEF77DBF002240681146FEF798BF92
:105D1C00002240681146FEF7A3BF40680022FEF740
:105D2C0097BF4068002281F00101FEF781BF00237C
:105D3C0040681A461946FEF773BF002340681A469E
:105D4C001946FEF765BF002240681146FEF748BFB2
:105D5C00406800220221FEF74BBF002340681A4620
:105D6C00FEF736BF024B04225A60024A1A60704793
:105D7C0018E7032070710B0010B5044601F05FF8B2
:105D8C00013823182046834206D90278197800F886
:105D9C00011B03F80129F6E710BD70B50C46911EE6
:105DAC0022291DD8254630B9234430229D4210D2D9
:105DBC0005F8012BFAE7B0FBF2F602FB1600C1B2B4
:105DCC00092894BF30315731C9B205F8011B304650
:105DDC00E9E7002320462B70FFF7CEFF204670BD6D
:105DEC000020FCE7014B1860704700BFB0E50320B2
:105DFC0008B50B4B43B1FFF75BFF03681B69984772
:105E0C00002801DDAFF30080064B43B100F0E2F84F
:105E1C0003681B699847002801DDAFF3008008BDBB
:105E2C00000000000000000008B5FFF7E1FFFEF7DE
:105E3C0093FD014B186008BD28E703200548064A6E
:105E4C00064908B5121A00F099FF054B054A1A606D
:105E5C0008BD00BF00F4032004F403206C720B0097
:105E6C0000F403201E1C279A07B5002300931A4642
:105E7C006FF07701FEF78AFE03B05DF804FB0000BB
:105E8C0007B543880A2B08D0502B0BD1094B1B6844
:105E9C004BB103B05DF804EB1847FFF7E5FF03B017
:105EAC005DF804FB002300931A466FF07701FEF7B0
:105EBC006DFEF4E724E7032010B512480021FEF72D
:105ECC0017FF114B1A68114B9A42114B0CBF012250
:105EDC0000221A7001D0FFF7B1FFFEF735FD044622
:105EEC0000F062FF0B4B13B12046AFF30080002192
:105EFC000848FEF765FEBDE8104007480021FEF794
:105F0C003BBE00BFF15D0B0000F403201E1C279A62
:105F1C0020E70320000000008D5E0B00704700009E
:105F2C0038B50A4B0360012304464361084920201D
:105F3C0000F074F8202560600549A560284600F043
:105F4C006DF8C4E90305204638BD00BF18000100F8
:105F5C00A4710B0030B50E4D2978BFF35B8F11F097
:105F6C00010487B011D12846FEF793F868B1684652
:105F7C00FFF7D6FF6A4621460648FFF719FA28466E
:105F8C00FEF78CF8044800F0F3FE024807B030BD71
:105F9C002CE7032030E70320295F0B00704700003B
:105FAC0038B5044614252A46002100F0F5FE25805C
:105FBC004025074925812846258200F02FF8044901
:105FCC006060284600F02AF8E060204638BD00BF2B
:105FDC00A4710B0030B50E4D2978BFF35B8F11F017
:105FEC00010487B011D12846FEF753F868B101A817
:105FFC00FFF7D6FF01AA21460648FFF7E7FD284622
:10600C00FEF74CF8044800F0B3FE024807B030BD70
:10601C0044E7032048E70320A95F0B00FEF735B8DF
:10602C0008B5FEF74DFE000081F0004102E000BF14
:10603C0083F0004330B54FEA41044FEA430594EA3C
:10604C00050F08BF90EA020F1FBF54EA000C55EA77
:10605C00020C7FEA645C7FEA655C00F0E2804FEA48
:10606C005454D4EB5555B8BF6D420CDD2C4480EA2A
:10607C00020281EA030382EA000083EA010180EA5A
:10608C00020281EA0303362D88BF30BD11F0004FA8
:10609C004FEA01314FF4801C4CEA113102D04042DE
:1060AC0061EB410113F0004F4FEA03334CEA133319
:1060BC0002D0524263EB430394EA050F00F0A78031
:1060CC00A4F10104D5F1200E0DDB02FA0EFC22FA2C
:1060DC0005F2801841F1000103FA0EF2801843FA20
:1060EC0005F359410EE0A5F120050EF1200E012A11
:1060FC0003FA0EFC28BF4CF0020C43FA05F3C0184F
:10610C0051EBE37101F0004507D54FF0000EDCF1C7
:10611C00000C7EEB00006EEB0101B1F5801F1BD370
:10612C00B1F5001F0CD349085FEA30004FEA3C0C74
:10613C0004F101044FEA445212F5800F80F09A806A
:10614C00BCF1004F08BF5FEA500C50F1000041EB6E
:10615C00045141EA050130BD5FEA4C0C404141EB72
:10616C000101013C28BFB1F5801FE9D291F0000F6D
:10617C0004BF01460020B1FA81F308BF2033A3F11C
:10618C000B03B3F120020CDA0C3208DD02F1140C13
:10619C00C2F10C0201FA0CF021FA02F10CE002F14E
:1061AC001402D8BFC2F1200C01FA02F120FA0CFC47
:1061BC00DCBF41EA0C019040E41AA2BF01EB045190
:1061CC00294330BD6FEA04041F3C1CDA0C340EDC8E
:1061DC0004F11404C4F1200220FA04F001FA02F3D1
:1061EC0040EA030021FA04F345EA030130BDC4F18F
:1061FC000C04C4F1200220FA02F001FA04F340EA84
:10620C000300294630BD21FA04F0294630BD94F034
:10621C00000F83F4801306BF81F480110134013D1B
:10622C004EE77FEA645C18BF7FEA655C29D094EA8C
:10623C00050F08BF90EA020F05D054EA000C04BF0A
:10624C001946104630BD91EA030F1EBF00210020F5
:10625C0030BD5FEA545C05D14000494128BF41F094
:10626C00004130BD14F580043CBF01F5801130BDF8
:10627C0001F0004545F0FE4141F470014FF0000083
:10628C0030BD7FEA645C1ABF194610467FEA655C34
:10629C001CBF0B46024650EA013406BF52EA0335D6
:1062AC0091EA030F41F4002130BD00BF90F0000FC4
:1062BC0004BF0021704730B54FF4806404F1320400
:1062CC004FF000054FF0000150E700BF90F0000FB9
:1062DC0004BF0021704730B54FF4806404F13204E0
:1062EC0010F0004548BF40424FF000013EE700BFB0
:1062FC0042004FEAE2014FEA31014FEA02701FBF40
:10630C0012F07F4393F07F4F81F06051704732F071
:10631C007F4208BF704793F07F4F04BF41F40021C8
:10632C00704730B54FF4607401F0004521F0004126
:10633C001CE700BF50EA010208BF704730B54FF0B0
:10634C0000050AE050EA010208BF704730B511F0B1
:10635C00004502D5404261EB41014FF4806404F1E9
:10636C0032045FEA915C3FF4D8AE4FF003025FEA6F
:10637C00DC0C18BF03325FEADC0C18BF033202EBF3
:10638C00DC02C2F1200300FA03FC20FA02F001FA4D
:10639C0003FE40EA0E0021FA02F11444BDE600BFF0
:1063AC0070B54FF0FF0C4CF4E06C1CEA11541DBF9F
:1063BC001CEA135594EA0C0F95EA0C0F00F0DEF86A
:1063CC002C4481EA030621EA4C5123EA4C5350EA4F
:1063DC00013518BF52EA033541F4801143F48013A0
:1063EC0038D0A0FB02CE4FF00005E1FB02E506F031
:1063FC000042E0FB03E54FF00006E1FB03569CF086
:10640C00000F18BF4EF0010EA4F1FF04B6F5007F8B
:10641C0064F5407404D25FEA4E0E6D4146EB0606FD
:10642C0042EAC62141EA55514FEAC52040EA5E5086
:10643C004FEACE2EB4F1FD0C88BFBCF5E06F1ED830
:10644C00BEF1004F08BF5FEA500E50F1000041EB67
:10645C00045170BD06F0004646EA010140EA020014
:10646C0081EA0301B4EB5C04C2BFD4EB0C0541EA36
:10647C00045170BD41F480114FF0000E013C00F34B
:10648C00AB8014F1360FDEBF002001F0004170BD6F
:10649C00C4F10004203C35DA0C341BDC04F1140488
:1064AC00C4F1200500FA05F320FA04F001FA05F214
:1064BC0040EA020001F0004221F0004110EBD370E1
:1064CC0021FA04F642EB06015EEA430E08BF20EA0D
:1064DC00D37070BDC4F10C04C4F1200500FA04F3B0
:1064EC0020FA05F001FA04F240EA020001F0004142
:1064FC0010EBD37041F100015EEA430E08BF20EAB5
:10650C00D37070BDC4F1200500FA05F24EEA020EFC
:10651C0020FA04F301FA05F243EA020321FA04F02B
:10652C0001F0004121FA04F220EA020000EBD370E2
:10653C005EEA430E08BF20EAD37070BD94F0000FE2
:10654C000FD101F00046400041EB010111F4801F16
:10655C0008BF013CF7D041EA060195F0000F18BFC7
:10656C00704703F00046520043EB030313F4801F03
:10657C0008BF013DF7D043EA0603704794EA0C0FBD
:10658C000CEA135518BF95EA0C0F0CD050EA4106D3
:10659C0018BF52EA4306D1D181EA030101F0004150
:1065AC004FF0000070BD50EA410606BF1046194678
:1065BC0052EA430619D094EA0C0F02D150EA013684
:1065CC0013D195EA0C0F05D152EA03361CBF1046C5
:1065DC0019460AD181EA030101F0004141F0FE4164
:1065EC0041F470014FF0000070BD41F0FE4141F4E8
:1065FC00780170BD70B54FF0FF0C4CF4E06C1CEAE8
:10660C0011541DBF1CEA135594EA0C0F95EA0C0F9C
:10661C0000F0A7F8A4EB050481EA030E52EA033557
:10662C004FEA013100F088804FEA03334FF0805578
:10663C0045EA131343EA12634FEA022245EA1115A5
:10664C0045EA10654FEA00260EF000419D4208BF56
:10665C00964244F1FD0404F5407402D25B084FEA03
:10666C003202B61A65EB03055B084FEA32024FF4AF
:10667C0080104FF4002CB6EB020E75EB030E22BF0C
:10668C00B61A754640EA0C005B084FEA3202B6EBCC
:10669C00020E75EB030E22BFB61A754640EA5C007B
:1066AC005B084FEA3202B6EB020E75EB030E22BF0B
:1066BC00B61A754640EA9C005B084FEA3202B6EB0C
:1066CC00020E75EB030E22BFB61A754640EADC00CB
:1066DC0055EA060E18D04FEA051545EA16754FEA2D
:1066EC0006164FEAC30343EA52734FEAC2025FEA4B
:1066FC001C1CC0D111F4801F0BD141EA00014FF0DA
:10670C0000004FF0004CB6E711F4801F04BF0143AA
:10671C000020B4F1FD0C88BFBCF5E06F3FF6AFAEC6
:10672C00B5EB030C04BFB6EB020C5FEA500C50F156
:10673C00000041EB045170BD0EF0004E4EEA1131D9
:10674C0014EB5C04C2BFD4EB0C0541EA045170BDE0
:10675C0041F480114FF0000E013C90E645EA060E24
:10676C008DE60CEA135594EA0C0F08BF95EA0C0F52
:10677C003FF43BAF94EA0C0F0AD150EA01347FF49A
:10678C0034AF95EA0C0F7FF425AF104619462CE771
:10679C0095EA0C0F06D152EA03353FF4FDAE1046D4
:1067AC00194622E750EA410618BF52EA43067FF425
:1067BC00C5AE50EA41047FF40DAF52EA43057FF4B5
:1067CC00EBAE12E74FF0FF3C06E000BF4FF0010CC0
:1067DC0002E000BF4FF0010C4DF804CD4FEA410C24
:1067EC007FEA6C5C4FEA430C18BF7FEA6C5C1BD0F1
:1067FC0001B050EA410C0CBF52EA430C91EA030F72
:10680C0002BF90EA020F0020704710F1000F91EACE
:10681C00030F58BF994208BF90422CBFD8176FEA9C
:10682C00E37040F0010070474FEA410C7FEA6C5C6A
:10683C0002D150EA013C07D14FEA430C7FEA6C5C71
:10684C00D6D152EA033CD3D05DF8040B704700BF9D
:10685C008446104662468C461946634600E000BFEB
:10686C0001B5FFF7B7FF002848BF10F1000F01BDBD
:10687C004DF808EDFFF7F4FF0CBF012000205DF888
:10688C0008FB00BF4DF808EDFFF7EAFF34BF01200D
:10689C0000205DF808FB00BF4DF808EDFFF7E0FFA6
:1068AC0094BF012000205DF808FB00BF4DF808EDF7
:1068BC00FFF7CEFF94BF012000205DF808FB00BF5E
:1068CC004DF808EDFFF7C4FF34BF012000205DF840
:1068DC0008FB00BF4FEA410C7FEA6C5C02D150EA26
:1068EC00013C0AD14FEA430C7FEA6C5C02D152EABC
:1068FC00033C02D14FF0000070474FF0010070478D
:10690C004FEA410212F5001215D211D56FF47873CB
:10691C00B3EB625212D94FEAC12343F0004343EA6E
:10692C00505311F0004F23FA02F018BF4042704749
:10693C004FF00000704750EA013005D111F00040D3
:10694C0008BF6FF0004070474FF00000704700BF69
:10695C004A0011D212F5001211D20DD56FF47873D2
:10696C00B3EB62520ED44FEAC12343F0004343EA27
:10697C00505323FA02F070474FF00000704750EA72
:10698C00013002D14FF0FF3070474FF000007047DC
:10699C004FEA4102B2F1E04324BFB3F5001CDCF135
:1069AC00FE5C0DD901F0004C4FEAC0024CEA50706D
:1069BC00B2F1004F40EB830008BF20F0010070479C
:1069CC0011F0804F21D113F13872BCBF01F000409F
:1069DC00704741F480114FEA5252C2F11802C2F1D1
:1069EC00200C10FA0CF320FA02F018BF40F0010052
:1069FC004FEAC1234FEAD32303FA0CFC40EA0C0004
:106A0C0023FA02F34FEA4303CCE77FEA625307D140
:106A1C0050EA01331EBF4FF0FE4040F44000704777
:106A2C0001F0004040F0FE4040F40000704700BF11
:106A3C0053B94AB9002908BF00281CBF4FF0FF31D9
:106A4C004FF0FF3000F092B9ADF1080C6DE904CEB7
:106A5C0000F024F8DDF804E0DDE9022304B070470F
:106A6C00D0B50C4B002206460F46FFF799FCFFF7FA
:106A7C006FFF0446FFF71AFC074B0022FFF790FC50
:106A8C0002460B4630463946FFF7D2FAFFF760FF55
:106A9C002146D0BD0000F03D0000F0412DE9F0474B
:106AAC00089D04468E46002B4DD18A42944669D9E6
:106ABC00B2FA82F252B101FA02F3C2F1200120FAC9
:106ACC0001F10CFA02FC41EA030E94404FEA1C4817
:106ADC00210CBEFBF8F61FFA8CF708FB16E341EA13
:106AEC00034306FB07F199420AD91CEB030306F199
:106AFC00FF3080F01F81994240F21C81023E6344BA
:106B0C005B1AA4B2B3FBF8F008FB103344EA03445D
:106B1C0000FB07F7A7420AD91CEB040400F1FF3372
:106B2C0080F00A81A74240F207816444023840EAAF
:106B3C000640E41B00261DB1D4400023C5E90043E8
:106B4C003146BDE8F0878B4209D9002D00F0EF806B
:106B5C000026C5E9000130463146BDE8F087B3FA9E
:106B6C0083F6002E4AD18B4202D3824200F2F98086
:106B7C00841A61EB030301209E46002DE0D0C5E989
:106B8C00004EDDE702B9FFDEB2FA82F2002A40F0D5
:106B9C009280A1EB0C014FEA1C471FFA8CFE0126D8
:106BAC00200CB1FBF7F307FB131140EA01410EFB7C
:106BBC0003F0884208D91CEB010103F1FF3802D223
:106BCC00884200F2CB804346091AA4B2B1FBF7F01D
:106BDC0007FB101144EA01440EFB00FEA64508D940
:106BEC001CEB040400F1FF3102D2A64500F2BB807D
:106BFC000846A4EB0E0440EA03409CE7C6F12007CC
:106C0C00B34022FA07FC4CEA030C20FA07F401FA11
:106C1C0006F31C43F9404FEA1C4900FA06F3B1FB9A
:106C2C00F9F8200C1FFA8CFE09FB181140EA0141FF
:106C3C0008FB0EF0884202FA06F20BD91CEB01019C
:106C4C0008F1FF3A80F08880884240F28580A8F1F4
:106C5C0002086144091AA4B2B1FBF9F009FB101146
:106C6C0044EA014100FB0EFE8E4508D91CEB0101E4
:106C7C0000F1FF346CD28E456AD90238614440EA87
:106C8C000840A0FB0294A1EB0E01A142C846A64607
:106C9C0056D353D05DB1B3EB080261EB0E0101FA90
:106CAC0007F722FA06F3F1401F43C5E900710026ED
:106CBC003146BDE8F087C2F12003D8400CFA02FC43
:106CCC0021FA03F3914001434FEA1C471FFA8CFE53
:106CDC00B3FBF7F007FB10360B0C43EA064300FB43
:106CEC000EF69E4204FA02F408D91CEB030300F1E1
:106CFC00FF382FD29E422DD9023863449B1B89B298
:106D0C00B3FBF7F607FB163341EA034106FB0EF320
:106D1C008B4208D91CEB010106F1FF3816D28B42CD
:106D2C0014D9023E6144C91A46EA004638E72E4699
:106D3C00284605E70646E3E61846F8E64B45A9D291
:106D4C00B9EB020864EB0C0E0138A3E74646EAE700
:106D5C00204694E74046D1E7D0467BE7023B6144AE
:106D6C0032E7304609E76444023842E7704700BF17
:106D7C00002301461A46184600F06AB80A449142AC
:106D8C0000F1FF3300D1704710B511F8014B03F837
:106D9C00014F9142F9D110BD02440346934200D1F8
:106DAC00704703F8011BF9E738B5104B1D68AB6B46
:106DBC000446B3B91820FDF76BFF0246A86320B94F
:106DCC000B4B0C484221FDF78BFF0B490B4BC0E9D9
:106DDC0000130B4B83600B23838100210120C2E93C
:106DEC000401AB6B00221C615A6138BDB0E5032075
:106DFC00A5710B00BC710B000E33CDAB34126DE6DC
:106E0C00ECDE0500024B0146186800F003B800BF29
:106E1C00B0E5032037B5044608460D4600F00FF8E0
:106E2C00421C114620460192FDF752FF044618B150
:106E3C00019A2946FFF7A2FF204603B030BD034656
:106E4C0013F8012B002AFBD1181A013870470000E7
:106E5C002DE9F843DFF8B8800646D8F800001F4645
:106E6C000D46914600F056F8254B1C6834B9254C5C
:106E7C001C60254B13B11B68C4F8883063681F2B4A
:106E8C0007DDD8F8000000F047F84FF0FF30BDE800
:106E9C00F8834EB3D4F8880088B91C4B23B9D8F8C2
:106EAC00000000F038F8F0E74FF48470FDF7F0FEC6
:106EBC000028F4D00023C0E94033C4F8880063688C
:106ECC0040F8239001229A4000EB8301D0F8003166
:106EDC001343C0F80031022EC1F8807002BFD0F805
:106EEC0004311343C0F804316368D8F800005A1C0D
:106EFC000233626044F8235000F00EF80020C6E71D
:106F0C00E8E703205CE70320000000009D4C0B0029
:106F1C0014E6032070477047704700001D400B00BB
:106F2C0059400B0081400B0085400B000000000015
:106F3C00496E697469616C697A696E672E2E2E00D0
:106F4C004D4158333031303520776173206E6F747A
:106F5C0020666F756E642E20506C656173652063BE
:106F6C006865636B20776972696E672F706F7765E0
:106F7C00722E2000506C61636520796F75722069E8
:106F8C006E6465782066696E676572206F6E20741A
:106F9C0068652073656E736F7220776974682073EF
:106FAC0074656164792070726573737572652E00F7
:106FBC0049523D002C2042504D3D002C204176671B
:106FCC002042504D3D0068656172747261746500B9
:106FDC002C207075626C697368656400204E6F209C
:106FEC0066696E6765723F00AC00410143029F0306
:106FFC00500542075609640B3F0DB80EAC0F00103C
:10700C000000000000000000B94D0B00BF4D0B004C
:10701C00FD4D0B00CD4D0B00BB4D0B0000000000D7
:10702C000000000047530B003D530B0033530B0083
:10703C0029530B001D530B0011530B00C1550B00B2
:10704C00C9550B0005530B00FD520B00F3520B00FE
:10705C00E9520B00F9550B00000000000000000085
:10706C0065530B00AF530B0087530B0067530B009A
:10707C008F530B0097530B009F530B00A7530B0020
:10708C00000000000000000091540B0081540B0024
:10709C0083540B00617070000000000000000000C1
:1070AC0081550B008B550B0095550B009F550B0014
:1070BC00A9550B00B5550B00C1550B00C9550B005C
:1070CC00D1550B00DD550B00E5550B00EF550B00B2
:1070DC00F9550B006E616E00696E66006F76660086
:1070EC0025592D256D2D25645425483A254D3A25D5
:1070FC0053257A0061736374696D650000000000AC
:10710C00000000005D5B0B00C95B0B00A15B0B007A
:10711C00E5560B00715B0B008D5B0B007F5B0B006E
:10712C009B5B0B005F5B0B00635B0B0000000000C4
:10713C0000000000075C0B006F5C0B00455C0B0053
:10714C00E5560B00375C0B00095C0B00195C0B005F
:10715C00695C0B00295C0B00015C0B00000000005B
:10716C0000000000675D0B005D5D0B00535D0B00C4
:10717C00095D0B00475D0B003B5D0B00C1550B001F
:10718C00C9550B002F5D0B00275D0B001D5D0B001F
:10719C00135D0B00F9550B00005245454E54206D04
:1071AC00616C6C6F63207375636365656465640003
:1071BC002F746D702F6A656E6B696E732D47434328
:1071CC002D31302D706970656C696E652D34385FAA
:1071DC0032303230313132345F3136303631383052
:1071EC003633392F7372632F6E65776C69622F6E2D
:1071FC0065776C69622F6C6962632F7374646C6958
:10720C00622F72616E642E630000000009430B0054
:10721C00A94D0B0051530B0071550B00D1560B00AF
:10722C005D590B00255B0B00495B0B00715D0B007E
:04723C00000000004E
:10724000040000001400000003000000474E550039
:10725000A0AC9FE23A15890AEE0823F35DD32FD242
:0472600024EE3FD306
:0872640044F8FF7F0100000067
:04726C00000000001E
:107270001400ECFF00710B00B4E5032000000000D7
:1072800000000000000000000000000000000000FE
:1072900000000000000000000000000000000000EE
:1072A00000000000000000000000000000000000DE
:1072B00000000000000000000000000000000000CE
:1072C00000000000000000000000000000000000BE
:1072D000000000000000000000000000ECE70320B8
:1072E000FFFFFFFF00000102030405060708090A6B
:1072F0000B0C0D0E0F101112131415161718191A66
:087300001B1C1D1E1F202800AC
:04730800785634126D
:04000003B000401CED
:00000001FF
